:100000000C945F020C947E020C947E020C947E028F
:100010000C947E020C947E020C947E020C947E0260
:100020000C947E020C947E020C947E020C947E0250
:100030000C947E020C947E020C947E020C947E0240
:100040000C947E020C947E020C947E020C947E0230
:100050000C947E020C947E020C947E020C94B403E9
:100060000C947E020C94E6030C947B190C947E0293
:100070000C947E020C947E020C947E020C947E0200
:100080000C947E020C947E020C947E020C947E02F0
:100090000C947E020C947E020C947E020C947E02E0
:1000A0000C947E020C947E020C947E020C947E02D0
:1000B0000C947E020C947E020C947E020C947E02C0
:1000C0000C947E020C947E020C947E020C947E02B0
:1000D0000C947E020C947E020C947E020C947E02A0
:1000E0000C947E020C947E020C947E020C947E0290
:1000F0000C947E020C947E020C947E020C947E0280
:100100000C947E020C947E020C947E020C947E026F
:100110000C947E020C947E020C947E020C947E025F
:100120000C947E020C947E020C947E020C947E024F
:100130000C947E020C947E020C947E020C947E023F
:100140000C947E020C947E020C947E020C947E022F
:100150000C947E020C947E020C947E020C947E021F
:100160000C947E020C947E020C947E02D513021431
:10017000111431148514851485148514851485147F
:100180009014DE142A152A152A152C174017541717
:10019000CE17E2179F18E2179F18DE18E2179F1874
:1001A000E2179F18DE185ACCAE46B631AE461CA7F1
:1001B000600404BF1315C5408A37E0E803A31D3867
:1001C0000308064A0B0010A41105120E1B551C054E
:1001D000323C351439011E101F0001100F10270288
:1001E00028020F28EF64B02AD28FB12A1D19323CA1
:1001F00035141B551C05064A10E803080CC40D04F1
:100200000F211E001500160062DFC149DFB1C04991
:10021000020005002802323C3514064A1B551C0515
:10022000390101101402120A0338104A1F041E1467
:1002300029200F242900032F10EA1F001E000100AF
:100240000203FFFFFF01000203FFFFFF01000203A3
:1002500004FFFF0100020304FFFF01050203000485
:10026000FF010502030004FF01050204030600016B
:100270000502040306000105020306FFFF04000750
:10028000FFFFFFFF0105020306FFFF04000708FF51
:10029000FFFF0105020306FFFF0400070809FFFF37
:1002A00001050203060AFF0400070809FFFF010514
:1002B0000204060AFF00070308090BFF01050203F9
:1002C0000607FF0105020400FFFF01050203060700
:1002D000FF010502040008FF0105020304080901EB
:1002E00005020300070603BC6E8AEFBDFEF88817FF
:1002F000133B2DBF06D6F1943021A11C88A9D0D282
:100300008EBC822FE3B48CFA479B83A566D007BDD1
:100310009F26C8310FB8EF039589B471619D40BA2B
:1003200097D5864FCCD183F7A82D7A4464D33F2C40
:100330004EAA71487AC917FF9E213690C782BC5DCC
:100340009A5BEE7F42EB24F5DDF87A7774E73D7037
:100350007C94DC84AD951E6AF037527B11D462F533
:100360002BAAFC33BFAF405632D90FD95D978E4AC6
:10037000D0A9A7FF20CA4C979DBFB83DB5BE0C5D64
:1003800024309FCA6DBD501433DEF17895AD0C3C1E
:10039000FAF9F0F210C9F4DA06DBBF4E6FB39E082B
:1003A000D1AE595EE8F0C0908FBB7C8E2B8E8069F9
:1003B000268008F849E77D2D4954D08040C1B6F227
:1003C000E61B805A36B442AE9C1CDA6705F69B7574
:1003D000F7E0148DB580BF5498B9B7305A8835D13D
:1003E000FC9723D4C988E1D631265FBD4093DC68F1
:1003F000089997AEAF8CC30E01160E3206BAE08391
:1004000001FAAB3E8FAC5CD59CB8469C7D84F1C6AE
:10041000FE5C9DA54FB758B5B3DD0E28F1B05F3037
:100420003B569645F4A13C37CC91E2F8CC919BC564
:10043000A10FAD39A20FEF64B02AD28FB12A66CDD9
:100440007C50DD267C505CE1F644AD16F6445ACC77
:10045000AE46B631AE46A178DC3C9E82DC3CB98E1D
:1004600019746F651874DFB1C04962DFC14997E53F
:1004700014727F1A147282C790362103FF17E2F8B4
:10048000CC913C37CC91AD39A20F9BC5A10FD28F37
:10049000B12AEF64B02ADD267C5066CD7C50AD16C3
:1004A000F6445CE1F644B631AE465ACCAE469E8286
:1004B000DC3CA178DC3C6F651874B98E197411248A
:1004C0001FBECFEFCDBFDFE2DEBF80E08CBF10E20A
:1004D000A0E0B0E2ECE3FFE302C005900D92A43887
:1004E000B107D9F722E2A4E8B0E201C01D92A1341D
:1004F000B207E1F70E944D1C0C949C1F0C94000065
:1005000098E080E020E8880F3091680636FD816031
:10051000209365060000000000002093660600009E
:100520000000915081F7089590E8909366060000CE
:1005300090E290936606000098E030E220E887FFA2
:1005400003C03093650602C0309366060000209316
:10055000650600000000880F209366060000915099
:1005600071F780E2809365060895FF920F931F93C1
:10057000CF93DF93F82E092F162F80E18093660624
:1005800081E20E949402CF2DD02FCE01810F911DC8
:100590008C01C017D10721F00E9480028993F9CF06
:1005A00080E180936506DF91CF911F910F91FF90BD
:1005B00008951F93CF93DF93C0E6D6E010E11E832A
:1005C0000E9494020E9480021D83DF91CF911F91AF
:1005D0000895FF920F931F93CF93DF93F62E072F6B
:1005E000142F90E19093660680680E949402CF2DAC
:1005F000D02FCE01810F911D8C01C017D10721F0A2
:1006000089910E949402F9CF80E180936506DF9181
:10061000CF911F910F91FF9008950F931F93CF9348
:10062000DF93062FC0E6D6E010E11E8380680E94AB
:100630009402802F0E9494021D83DF91CF911F911D
:100640000F910895CF93C92F682F85E10E940D0364
:100650006C2F86E1CF910C940D03CF9390910C22D7
:1006600097FF02C0C7E001C0C0E093FDC1E0C82B06
:1006700080910020C81731F06C2F83E00E940D0399
:10068000C0930020CF910895682F80E00C940D0353
:10069000CF93C82F80910322C11108C0883221F066
:1006A00064E28FE00E940D0360E00FC0883241F0E9
:1006B000C13011F06CE201C068E28FE00E940D03CE
:1006C000C13011F460E801C060E28EE0CF910C947B
:1006D0000D03CF93C1E0C093850684E690E00E94AD
:1006E0008116C093860684E690E00E94811661E040
:1006F0008DE10E940D0388EC90E00E94811660EC71
:100700008CE00E940D0364E08DE00E940D0380E008
:100710000E94480380E10E94D90291E0853A09F0E5
:1007200090E0892FCF9108950F931F93EDEDF0E2A4
:1007300090838183072F182F292F33270283638308
:10074000007F6F70602B64831F910F9108958091DB
:100750000D22887141F4F8948091A3088C7F816008
:100760008093A308789408951F920F920FB60F926A
:1007700011242F933F934F935F936F937F938F93A6
:100780009F93AF93BF93EF93FF9381E08093DB2020
:10079000E0E4F8E08781837F87830E94A703FF91CD
:1007A000EF91BF91AF919F918F917F916F915F91E9
:1007B0004F913F912F910F900FBE0F901F90189562
:1007C000E0EAF8E083818C7F838308951F920F9283
:1007D0000FB60F9211242F933F934F935F936F9314
:1007E0007F938F939F93AF93BF93EF93FF938091EA
:1007F000A1088C7151F4E091DA20EE23F9F0809198
:10080000DB20813009F048C019C08091A008809396
:10081000DA2081E08093DB208091DB20813009F0B9
:100820005FC080914708837F8093470880910D22A5
:100830008F7E80930D220E94A70352C01092DA206F
:100840001092DB2080910D228B7F80930D2290915E
:10085000A0089093C0209091C0209C7F9435E1F631
:10086000806180930D220E94E00380916008909146
:1008700061088C59964E80936A0890936B0880E2C9
:1008800080934C0880914708837F84608093470859
:1008900081E08093DA20C0CF81E08E0F8093DA2050
:1008A000F0E09091A008E054FF4D90838A3108F465
:1008B000B3CF80910D2281FD0FC08AE1E0ECF0E220
:1008C000A6EAB0E201900D928A95E1F780910C22A0
:1008D000816080930C229DCF846080930D2299CFFC
:1008E000FF91EF91BF91AF919F918F917F916F9108
:1008F0005F914F913F912F910F900FBE0F901F90DE
:1009000018958F929F92AF92BF92CF92DF92EF9203
:10091000FF920F931F93CF93DF93CDB7DEB72A9744
:10092000CDBFDEBF20910B222111A5C080910C22EA
:1009300080FFA1C090910D22392F326030930D229B
:10094000382F3E7F30930C224091A72045FF04C0F2
:10095000386030930C2203C0867F80930C22309144
:10096000A72080910C2236FF02C0806101C08F7EDB
:1009700080930C223091A82080910C2237FF02C076
:100980008B7F01C0846080930C228091A92080938A
:1009900089218091A62081FF0BC08091A6208D7FA8
:1009A0008093A620936090930D22FF24F39401C0BE
:1009B000F12C9091A620809104229813C7C68091B3
:1009C000A7209091052289278F7509F0BFC6409115
:1009D000A8208091062284278F7709F0B7C66AC6BF
:1009E00080910D228D7F80930D22F89480910D22AD
:1009F00082FF11C09AE1E0ECF0E2A6EAB0E20190D9
:100A00000D929A95E1F790910C22916090930C22AF
:100A10008B7F80930D227894EBEEF1E280E090E002
:100A200041E050E0619171916135744038F0BA0154
:100A3000082E01C0660F0A94EAF7262B019688302B
:100A4000910581F72093842080910D22806280930C
:100A50000D220E948F168091E7209091E820A091AE
:100A6000E920B091EA208093A2209093A320A09344
:100A7000A420B093A52080910D2285FF20C00E9464
:100A80008F168091E7209091E820A091E920B09105
:100A9000EA204091A2205091A3206091A42070915F
:100AA000A520841B950BA60BB70B87349105A105D8
:100AB000B10528F080910D228F7D80930D220E9438
:100AC0008F1680919C2090919D20A0919E20B091A6
:100AD0009F204091E7205091E8206091E92070919B
:100AE000EA2084179507A607B707E0F520910D22A5
:100AF00025FD09C020910B22211119C08C509E4F59
:100B0000AF4FBF4F24C040910E2250910F22452B72
:100B100041F42091640621FD0AC0C296A11DB11DB9
:100B200016C027FF09C02091640621FD0CC0885122
:100B30009C4FAF4FBF4F0BC020910C2227FF03C02B
:100B400022E0209365068C599F4FAF4FBF4F809393
:100B50009C2090939D20A0939E20B0939F2082E0A4
:100B6000809367069091E6208091E520981708F021
:100B7000805A891B803208F4E6C00E948F16C0900C
:100B8000E720D090E820E090E920F090EA208091E2
:100B9000972090919820A0919920B0919A20A70138
:100BA0009601281B390B4A0B5B0BDA01C901853F03
:100BB0009140A105B10508F44EC08DE40E94BC1916
:100BC00085E00E94BC1990910D2295FB882780F941
:100BD00020910B22211101C0826020910E223091C0
:100BE0000F22232B09F197FF02C0846107C0909167
:100BF0000C2297FF02C0846001C08C609091032298
:100C00009F3089F028F4943051F0973069F40BC08C
:100C10009C3149F09E3139F0953131F404C0909106
:100C2000ED20913009F480620E94BC1981E00E949D
:100C3000BC1982E00E94BC1981E00E94BC1987E1C6
:100C40000E94BC19C0929720D0929820E0929920DF
:100C5000F0929A2078C09091EF209923C1F0809172
:100C600003228630A1F48AEA0E94BC1900EF10E248
:100C700041E0E42E41E2F42ED8018D918D010E94D5
:100C8000BC19E016F106C1F71092EF205CC090FF8E
:100C90005AC0809103228F3009F455C02EEF209363
:100CA0008520833059F4109286201092872010926C
:100CB00088209E7F92609093EF2017C0982F9F7D91
:100CC000923059F08C3149F08E3039F08C3229F065
:100CD000873219F08952823040F4109286201092A7
:100CE0008720109288201092EF2010928920109275
:100CF0008A2010928B2010928D2010928C208EE7EB
:100D00000E94BC1905E810E22EE8C22E20E2D22E85
:100D100030E2E32E5801F801F08083E88F0D823035
:100D200030F48DE70E94BC19FE24D801FC920F5FBD
:100D30001F4FF50180810E94BC19C016D10651F7E2
:100D40008EE70E94BC1980910C2284FF19C09091FB
:100D50000D2296FD15C020910122309102222139E9
:100D6000354070F02091E7213091E8212E3F310588
:100D700038F48F77826080930C22906490930D22D8
:100D800090910C2294FF1BC080910D2286FF17C00A
:100D900020910122309102222031334080F48F7B58
:100DA00080930D222091AB213091AC21233031056D
:100DB00030F022E030E02093AB213093AC21892F3A
:100DC000827091FF0CC580910D2287FD1EC4109288
:100DD0000E2210920F221092A0201092A12082E0E9
:100DE000809365060E94690364E670E080E090E00D
:100DF0000E9459198DEF809300200E94E003109209
:100E0000EF201092E5201092E62080910D22877E3F
:100E100080930D22209188218091072290910822B1
:100E2000A0910922B0910A22BC01CD01620F711D6F
:100E3000811D911D6093842170938521809386216B
:100E4000909387210E949403EBE8F1E280E094E024
:100E50008193919351E2EB3AF507D1F78CEC90E056
:100E600080938F219093902180910D2281608093B7
:100E70000D220E948F168091E7209091E820A0918A
:100E8000E920B091EA2080939C2090939D20A0932C
:100E90009E20B0939F2080910322863109F454C391
:100EA00040F4863069F0873009F0AFC30EEB11E0F3
:100EB000F1C18E3109F47AC2883209F463C1A5C345
:100EC0000E94C31A909113228091882189278093D0
:100ED00013229091102280911122890F8E5F9091A0
:100EE0001222890F87708093EB20811119C08091A5
:100EF000DD2063E00E94541FE92FF0E0E05FFD4D2C
:100F0000908181E089278083909110228091112225
:100F1000890F8E5F90911222890F87708093EB204A
:100F20008091ED208250823008F067C060911022DD
:100F30007091112280911222909113220E948E1F93
:100F4000009113226B017C01C094D094E094F09442
:100F500010E099E4892E912CA12CB12CA7019601C7
:100F60006DE076E689E190E00E94441F6B017C0110
:100F7000A1EACA1AACE0DA0AA1E9EA0AA3ECFA0A81
:100F800099278F2D7E2D6D2DA50194010E94131F91
:100F900083E0860F902F982790FF03C01731F0F25F
:100FA0006DC0EDEAF1E290E020E030E040E0411772
:100FB00071F05191851791F35C3110F43F5F05C0DA
:100FC000543310F42F5F01C09F5F4F5FF0CF8C311F
:100FD00010F4383058F06951683110F4273030F08F
:100FE000843308F4BBCF983008F0B8CFE12FF0E09D
:100FF000E355FE4D80831F5FD1CF0BE423E045E036
:101000006AE0CE0101960E9409130E94571E22E059
:1010100031E041E051E00E94E11E2AE030E040E092
:1010200050E00E94E11EE1E0F0E0EC0FFD1FE60F52
:10103000F11D80818093AD21A2E08A2E99249394A2
:10104000A92CB92CBAE0CB2ED12CE12CF12C0E948A
:10105000571EA50194010E94E11EA70196010E945E
:10106000E11EE1E0F0E0EC0FFD1FE60FF11D8081D5
:101070009091AD21891759F38093AE210E945B16A0
:1010800081E00E9448030E94271680910C2287FD70
:101090006DC08DE00E94440340E162E670E283E2AD
:1010A0000E94E9023091102230953093162220914F
:1010B00011222095209317229091122290959093BF
:1010C00018228091132280958093192230931A223E
:1010D00020931B2290931C2280931D22A6E1B2E252
:1010E000EEE1F2E280E791E02D91820F911D22E284
:1010F000AE31B207C9F790931E2280931F2221E0E0
:10110000209320223091EC20309321222091ED2059
:10111000211106C0383010F431E009C032E007C0B8
:10112000213011F432E103C0223019F432EB309354
:1011300022222350223018F422EB209322221092F4
:10114000232224E232E24191840F911D2E173F07A2
:10115000D1F790932422809325221092E2218CE2F1
:1011600091E08093AB219093AC2103C083E0809306
:10117000E22180E197E28093A0209093A1208DE06E
:1011800097E13FC20E94571E22E031E041E051E06A
:101190000E94E11E2EE030E040E050E00E94E11E9F
:1011A000362F2AE0260F822F63E00E94541F9111F0
:1011B00002C02BE0230F1091DE201370812F880FC7
:1011C000180F145F10939B202093AD218EE1820FA6
:1011D0008093AE21235D2093AF211093B0218091A5
:1011E0000C2287FD4BC08CED95E08093AB21909352
:1011F000AC21ECEEEE2EE1E0FE2EF8E0CF2EF2E098
:10120000DF2EF70131966491F70184910E940D035E
:10121000F2E0EF0EF11CCE14DF0499F786EA91E0BC
:101220000E94A61089E00E94440381E00E944803C6
:101230004EEA51E0A6E1B2E2CD01FA012491FC01AF
:101240002193CF014F5F5F4FF2E286329F07A9F7EC
:101250008091DF2080931B228091E02080931C22CC
:1012600010931D2280E09D91890F22E2A532B207E2
:10127000D1F7809325221092E22103C083E080936E
:10128000E22180E197E28093A0209093A12086EC58
:1012900090E1B7C1F80131966491F80184910E9400
:1012A0000D030E5F1F4FF1E0043E1F0799F70E94E8
:1012B000C31A81E00E94480380E090E00E9422036C
:1012C00086E294E00E94A61000E524E044E063E09A
:1012D0008DEA91E20E9409138091AD218093B021A3
:1012E0009091AE219093B1212DEA31E22093DF213C
:1012F0003093E0210E9444031092E12180918921E2
:1013000080938A21811140C02091AD2180911022CB
:1013100028278091132228276091AE2180911122E5
:101320006827809114226827862F90E0A0E0B0E023
:10133000BA2FA92F982F8827A22B3091AF21209167
:1013400012222327309115222327BC01CD01622BC5
:1013500020E432E44FE050E00E94131F60938421A8
:1013600070938521809386219093872188E893E16B
:101370008093AB219093AC211092E22180910C22BA
:101380008F7780930C2209C083E08093E221109232
:10139000AB211092AC210E94E11A80E699E0809383
:1013A000A0209093A12081E29BE12BC188E20E94C2
:1013B0002D036AE486E00E940D0360E08BE00E944A
:1013C0000D0360EC8CE00E940D0364E08DE00E9450
:1013D0000D036CE28FE00E940D036EEE80E10E942F
:1013E0000D0365E58BE10E940D0365E08CE10E9431
:1013F0000D0368E18DE10E940D036CE382E30E941E
:101400000D0364E185E30E940D0360E98EE10E9413
:101410000D0360E08FE10E940D0360E181E00E9416
:101420000D036CE28FE00E940D0362E088E20E94EF
:101430000D0362E087E20E940D0348E065E070E280
:1014400082E20E94E90268E28FE00E940D0360E1FF
:101450008EE10E940D0360E28EE00E940D036CE2BB
:101460008FE00E940D0381E00E9448031092EE205D
:1014700000E524E044E063E08DEA91E20E94091374
:101480008091AD210E9444031092E1211092E2204C
:101490001092DC208091892180938A219091ED2007
:1014A000911102C0811135C00E94C31A9091AD21E3
:1014B0008091102289279091132289278295807F1D
:1014C0008093DF209091AE21809111228927909105
:1014D000142289278093DE209091AF2180911222DF
:1014E00089279091152289278093DD209091ED2006
:1014F000913019F481608093DD2084EA9BE0809331
:10150000AB219093AC211092E22180910C228F7735
:1015100010C08091E0208295807F8093DF20109220
:10152000AB211092AC2181E08093E22180910C22CA
:10153000806880930C2280EF9AE08093A0209093A3
:10154000A1208BE99CE05DC062E088E20E940D036F
:101550006CE382E30E940D0364E185E30E940D03C6
:1015600065E08CE10E940D0365E58BE10E940D03AF
:101570006AE486E00E940D0388E20E942D036EE07B
:1015800082E10E940D036EEE80E10E940D0360E097
:101590008FE10E940D0360E08EE10E940D0340E1A7
:1015A0006DE070E283E20E94E90210E110936606AA
:1015B00084EA0E94940282E00E94940283E30E94E3
:1015C000940283E30E949402109365060E94C31A5A
:1015D0009091132280918821890F8093132280910A
:1015E0000C2287FD03C01092E22103C08AE08093A1
:1015F000E22180E699E08093A0209093A1208EEBD9
:1016000093E180930E2290930F2290910C2280916F
:101610000D2294FF0EC086FD0CC02091052227FDEF
:1016200008C020910B22211104C0806880930D22F4
:101630003FC08F7780930D229D7F90930C22E09086
:10164000A020F090A12021E0E2162DE7F206B0F0F4
:101650008701012F11270695069502501109B8013F
:1016600080E090E00E945919102F0027110F110FF0
:10167000E01AF10AE092A020F092A120F8942091C3
:101680006008309161088091A0209091A120880F7E
:10169000991F820F931F809368089093690880E1D7
:1016A00080934C08789480910C228F7D80930C223B
:1016B00081E095C08091A72087FF7DC097FD7BC00A
:1016C00080910C228F77826080930C228091A620DB
:1016D000809304228091A720809305228091A820E6
:1016E00080930622EBE8F1E243EE51E26BEA71E20D
:1016F000A9EAB0E23DEF83E0830F883018F035505F
:10170000119601C0382F8D010F5F1F4F11968D91DB
:101710009D910D90BC91A02D032E04C0B695A79568
:10172000979587950A94D2F79770FF2019F08083D8
:10173000918303C0DA018D939C9332964E5F5F4F85
:101740006E177F0709F44CC9D801D5CF80910C22C0
:10175000982F926090930C2290910D229F779093F6
:101760000D229091A72097FD02C084FF03C08F77C0
:10177000826001C0826880930C228091A62085350A
:1017800011F480E001C080E29091A7209F71890F41
:10179000809303228091A82090E054E0959587954E
:1017A0005A95E1F787708093ED208091A8208F7083
:1017B000809388218BCF8091A72087FD87CF97FFCB
:1017C00085CF8091AB219091AC21039708F47ECF17
:1017D00082E090E08093AB219093AC2177CF2A9662
:1017E000CDBFDEBFDF91CF911F910F91FF90EF90A2
:1017F000DF90CF90BF90AF909F908F900895CF9241
:10180000DF92EF92FF920F931F93CF93DF936A01C2
:101810007B01E901E82FF0E0EE5CFF4DE081F0E0B4
:10182000EE0FFF1FED51FE4D20813181C901A0E077
:10183000B0E09C01AD012C5C310941095109D60190
:10184000AA0FBB1F0E940B1F28E636E040E050E0C5
:101850000E94E11ED194C194D1080D2C000CEE0819
:10186000FF08D701C601820F931FA41FB51F9E0159
:10187000280F391FCE01801B910B281739070CF454
:101880009C01CE01800F911F281739070CF4C90164
:10189000DF91CF911F910F91FF90EF90DF90CF904C
:1018A0000895E6E1F2E2982F2191820F922722E239
:1018B000E432F207C9F790932422809325220895F9
:1018C000FC01808180931622818180931722809170
:1018D000AD21809318228091AE21809319228281BC
:1018E00080931A228091AF2180931B228FEF8093E7
:1018F0001C2210921D2210921E2282E380931F222E
:101900008091ED209091DD20813011F49E709061E6
:10191000909320228091DE20809321229091DF20DD
:101920008091E121892B809322228381809323223D
:1019300084810C94510C6F927F928F929F92AF9200
:10194000BF92CF92DF92EF92FF920F931F93CF93AC
:10195000DF93C090E220C110AEC391E09093E220EB
:10196000D091ED20D1112EC18091E221883018F460
:10197000813028F01EC0883009F479C08CC3809172
:10198000AB219091AC2101978093AB219093AC2136
:1019900083E290E20E94600C8091AB219091AC2197
:1019A000892B09F078C380910C22806880930C22E7
:1019B00058C0E12CF12C812C912CC0E0D0E0CC243B
:1019C000C394D12C8E2D843011F4882483940FEF8E
:1019D00013E020E030E042EC51E060E070E00E9473
:1019E000FF0B9C0197FF04C022273327281B390BCC
:1019F000F701EA5EFD4DE80DF11D2083CC0FDD1FE0
:101A0000CC0FDD1FA32EB12C950123703327C22BE1
:101A1000D32B97FF07C0C6010E2C01C0880F0A9474
:101A2000EAF7982A6FEFE61AF60A88E0E816F1045A
:101A300049F6D0931A22C0931F228091DD20809313
:101A400020228091DE20809321229091DF208091BE
:101A5000E121892B809322229092232285E20E9409
:101A6000510C8091E2218F5F8093E22114C3C091D9
:101A7000DC20C927C093DC2090918A2180918921A4
:101A80009817D1F080910C2287FF16C060918421B5
:101A90007091852180918621909187210E949403E5
:101AA0008091E0208295807F8093DF2085E791E020
:101AB0008093AB219093AC2180918921882341F0C0
:101AC0008091AB219091AC21892B21F0D4EE03C001
:101AD000D9E901C0DBE100910D220170F4E0CF9F54
:101AE000900111242E5C3F4DA6E1B2E280E090E02F
:101AF00010E061E070E0F90141919F01E42FF0E016
:101B0000EE0FFF1FE557FE4D408151814F3FF7E03B
:101B10005F0791F0002381F0E3E056954795EA9541
:101B2000E1F711964C931197AB01082E01C0440FB9
:101B30000A94EAF7142B03C011961C921197019690
:101B4000119684309105B9F61093162280911A22CD
:101B500080931B22C295CC0FCC0FC07CC0931A225D
:101B60008091AD2180931C228091AE2180931D2213
:101B70008091AF2180931E22D0931F228091DD207F
:101B8000809320228091DE20809321229091DF207B
:101B90008091E121892B80932222109223228CE1D3
:101BA0000E94510C81E08093E2218091AB219091C1
:101BB000AC21009709F46FC201978093AB219093F9
:101BC000AC219BC08091AB219091AC21D13009F028
:101BD00085C0EC01009741F001978093AB21909371
:101BE000AC2188E290E283C0D12CA12CB12CE12C55
:101BF000F2E0FF2E8C2FC23011F4DD24D39400E0EC
:101C00001AE020E030E040E058E060E070E00E9440
:101C1000FF0B9C0197FF04C022273327281B390B99
:101C2000A9015595479555954795411562E0560789
:101C300018F42370332708C0525C9A01220F331F17
:101C4000220F331F4FEF51E097FD04C05E5FC901C3
:101C50009E5F07C0C701841B950BAC01C701821BA7
:101C6000930BFE01EE0FFF1FED0DF11DEA5EFD4D22
:101C70004083818324E0AA0CBB1C2A95E1F736E05F
:101C8000569547953A95E1F74C705527292F3327FC
:101C900023703327CA01822B932BA82AB92A2196B5
:101CA000C430D10509F0A6CFB0921A22A0921F220B
:101CB0008091DD208E70806E809320228091DE20C6
:101CC000809321229091DF208091E121892B8093C4
:101CD000222280EF8093232280E0DBC10097B1F0C5
:101CE00001978093AB219093AC218DE290E20E940A
:101CF000600C8091AB219091AC21892B09F0CBC174
:101D000080910C22806880930C22C5C18090E121D3
:101D1000882D63E00E94541FB92E16E1E12E12E2D5
:101D2000F12E712CC0E00FEF11E020E030E040E92F
:101D300051E060E070E08C2F0E94FF0B9C0197FF48
:101D400004C022273327281B390BF70121937F0179
:101D5000832F8170770C770C782A892F881F88272A
:101D6000881F880F782ACF5FC430E9F670921A2254
:101D7000B11012C000E012E020E032E040E052E09A
:101D800060E070E086E00E94FF0B982EA92EE12C07
:101D9000F12CD230E1F40EC0D23099F4F1E0912C64
:101DA000C2E0AC2EBF1621F0E12CB2E0FB2E02C047
:101DB000E12CF12C10921D2210921E22C92DDA2D39
:101DC0001DC1912CF2E0AF2EE12CA2E0FA2ED3300F
:101DD00009F0DEC008EE13E020E030E048EE53E00A
:101DE00060E070E082E00E94FF0B9C01181619066B
:101DF00094F58C3063E09607E4F0092E000CAA0BF2
:101E0000BB0B9C01AD012C50334041095109A5E2A7
:101E1000B1E00E94001F2CED30E040E050E00E9455
:101E2000E11E69018AEDC80ED11C612CC0E0D0E032
:101E300047C04FEF53E0249FC001259F900D349F72
:101E4000900D112464EF7CEF0E94741FEB01C150D0
:101E5000DC4F612C5EC13195219531092C3093E026
:101E60003907ECF0C901330FAA0BBB0B9C01AD0184
:101E70002C50334041095109A5E2B1E00E94001FF6
:101E80002CED30E040E050E00E94E11E6901EAEDF7
:101E9000CE0ED11C66246394CFEFD3E011C04FEF78
:101EA00053E0249FC001259F900D349F900D112475
:101EB0006CE073E00E94741FEB016624639429C1F7
:101EC000C114F2E0DF0624F0CC24CA94DD24D394BC
:101ED000C0921822C60176E0959587957A95E1F72C
:101EE000982F9470872D837F792E782A70921A22EA
:101EF00000E014E020E030E040E054E060E070E01A
:101F000085E00E94FF0B8C0197FF06C0119501959B
:101F100011097724739401C0712C61E0B6121FC0BF
:101F20008BEDC816D10414F1D80164E0AA0FBB1FD1
:101F30006A95E1F7A601DD0C660B770B9A01AB0100
:101F40002A5D3109410951090E940B1F2CE83DE827
:101F50004FEF5FEF0E94E11E020F131F07C092E0D8
:101F6000B91639F08701C92DDA2D05C0C0E0D0E0DF
:101F700002C000E012E06294660C50EE6522770C1D
:101F8000770C762870921D2210921E22780136C09E
:101F9000DD24D394D53009F0D12C00E014E020E00A
:101FA00030E040E054E060E070E085E00E94FF0B2C
:101FB000EC012D2D220F220FE1E097FF07C0BE128A
:101FC000B1C0D195C195D10930E003C0BE12A5C002
:101FD00031E080918921982F990F990F80E064E674
:101FE00070E00E94741F7B01FCEFFF1A20931D22FA
:101FF000332311F042E0C42EC0921E22C11564E0CA
:10200000D60714F0CFEFD3E0E11484E0F80624F013
:10201000EE24EA9433E0F32EE0921B22C0931C22BC
:102020000FEF11E020E030E040E951E060E070E0C7
:1020300084E00E94FF0B21E0181619060CF020E046
:1020400080911E22282B20931E2294E0D595C795BF
:102050009A95E1F7C073C7019595879595958795F2
:10206000807CEC2EE82A8B2D8460E82AE0921F22E7
:102070008091DD20809320228091DE208093212298
:102080008091DF20882A809222228FEF8093232262
:102090008AE30E94510C8091E12190E001966CE06E
:1020A00070E00E94741F8093E12180E10E94AE1ACB
:1020B00080E496E03CC01092E2200E948F16C62F6A
:1020C000D0E00E948F1670E06C1B7D0B64367105AA
:1020D000BCF08091E1218370C9F48091EE208F5F84
:1020E00063E00E94541F9093EE20E92FF0E0E35547
:1020F000FE4D80810E94440388E20E942D0306C0A9
:1021000084E00E94D90281FFDCCFE3CF80EB94E032
:102110000EC08AEDC82ED12CDBCE20931D22C92DF6
:10212000DA2D68CF20931D22C92DDA2D65CFDF91DE
:10213000CF911F910F91FF90EF90DF90CF90BF90C4
:10214000AF909F908F907F906F900895CF93DF9383
:10215000CDB7DEB72897CDBFDEBFDE01119620E0F8
:1021600030E0BD01FC01E20FF31FE491ED932F5F1E
:102170003F4F28303105B1F748E082E20E94E90282
:102180002896CDBFDEBFDF91CF9108954F925F9229
:102190006F927F928F929F92BF92CF92DF92EF9237
:1021A000FF920F931F93CF93DF938091E2218230B0
:1021B00009F449C048F4882371F0813009F000C265
:1021C0000E948F16C62F2CC0833009F499C084302A
:1021D00009F4BCC0F5C181E00E94480380E10E947F
:1021E000AE1A8091E2218F5F8093E2218091AB2132
:1021F0009091AC2101978093AB219093AC21892BD6
:1022000009F0E1C180910C22806880930C2283E068
:102210008093E221D8C182E00E94D90287FF05C0E5
:102220000E948F166C1B683CB0F382E00E9448034A
:1022300063E885E00E940D038AE08093E42082E059
:102240008093E221D4C187E00E94D902C82F837015
:10225000823021F487E00E94D902C82B60E887E031
:102260000E940D038C2F87708230F1F589E00E9467
:10227000D9028031C9F560E180EF90E20E94B50299
:10228000E0EFF0E2A6E1B2E24FEF50E280E090E052
:1022900021913D91231301C08F5F920F4E175F076D
:1022A000B9F72091FF2092131AC08A30C0F08091B4
:1022B000F220843659F480910C22806880930C229D
:1022C00083E08093E22180E197E293C180E1E0EF37
:1022D000F0E2A6E1B2E201900D928A95E1F7109248
:1022E000E22188EC90E085C1C57809F072C1809147
:1022F000E42081508093E420882309F46AC177C1E7
:10230000CCEED1E0FE0131966491FE0184910E94F1
:102310000D032296F2E0C230DF07A1F76091DF20C3
:1023200085E10E940D036091E02086E10E940D038B
:1023300084EE91E00E94A61081E00E944803109272
:10234000E1218091E2218F5F8093E2210E948F162C
:10235000C62F0E948F166C1B683C68F18091E121AA
:102360008F5F8093E1219091DF20909316229091CE
:10237000E02090931722982F9370B92EE3E09E13DC
:1023800020C080E78093182284E080931922109265
:102390001A2280931B228091AD2180931C2280936E
:1023A0001D228091AE2180931E228091AF218093C7
:1023B0001F228AE052C082E00E94D90287FDC9CF65
:1023C000CDCF10918921143008F450C01A3008F094
:1023D0004DC09DEF910F9093182290E095958795B1
:1023E000959587958093192263EE862E61E2962E4D
:1023F000C6E1D2E209E078E6472E76E0572E612C5E
:10240000712CF40120813181C901A0E0B0E09C0170
:10241000AD012C5C310941095109A8EBB2E00E94E1
:10242000001FA30192010E94E11EBA01A9014956B1
:102430005F4F6F4F7F4F842F8295880F880F807C6E
:102440009B81892B8B839A01369527953695279505
:102450002C838CEF800F113059F48093E320C091CE
:10246000E320E6E1F2E290E080E084C019E0B1CF41
:10247000F40122813381C901A0E0B0E09C01AD01EB
:102480002C5C310941095109A8EBB2E00E94001F00
:10249000A30192010E94E11EDA01C90189569F4FF2
:1024A000AF4FBF4F8D83C92EDD24CE828EEF800FBC
:1024B000123099F2F40124813581C901A0E0B0E025
:1024C0009C01AD012C5C310941095109A8EBB2E036
:1024D0000E94001FA30192010E94E11EBA01A901FE
:1024E00049565F4F6F4F7F4F842F880F880FC82A40
:1024F000CE827A0126E0F694E7942A95E1F7EF82FE
:102500008FEF800F133009F4A8CFF40126813781B3
:10251000C901A0E0B0E09C01AD012C5C310941098A
:102520005109A8EBB2E00E94001FA30192010E9492
:10253000E11EBA01A90149565F4F6F4F7F4F842FAB
:102540008295807FE82AEF829A0194E0369527955C
:102550009A95E1F72887145051F085E0800FF8E054
:102560008F0E911C2596883111F0082F4ACF0093C9
:10257000E32075CFC91721F02191820F9F5FFACF19
:10258000EC2FF0E0EA5EFD4D8083EB2DF0E0E355AB
:10259000FE4D80810E94440388E00E942D0381E06B
:1025A0008C0F0E94AE1AE091E121E370E33071F0EC
:1025B000F0E0EE0FFF1FE35EFF4D8081918119C0B7
:1025C00088EE93E016C084EC99E013C085E494E0B3
:1025D00010C060E289E20E940D0361E28FE00E9478
:1025E0000D0360E089E20E940D031092E2218CEB62
:1025F00092E0DF91CF911F910F91FF90EF90DF90CC
:10260000CF90BF909F908F907F906F905F904F90F2
:1026100008957F928F929F92AF92BF92CF92DF9256
:10262000EF92FF920F931F93CF93DF93CDB7DEB757
:10263000C055D109CDBFDEBFA82E792EE62EB42E0F
:10264000F22E83E0821710F084E0F82E013508F0B6
:1026500000E54E2D50E060E070E08A2D972D0E943D
:10266000951F80E090E00E94220382E00E944803D0
:1026700061E070E080E090E00E945919DE0111965F
:102680004D0110E06D01812F0E9444038EE091E026
:102690000E94811685E00E94D90287FD0FC060E884
:1026A00085E00E940D038FE090E00E94811683E197
:1026B0000E94D9028FE090E00E94811683E10E947F
:1026C000D9028F71F40181934F011F5F1035D9F644
:1026D0009A2CEA2DF72D10E04B2D50E0AA24AA9455
:1026E0008E2F89198E1568F5F0828F2D282F082ED0
:1026F000000C330B90812017310774F42C0D3D1D15
:10270000B601690F711DD9012C91DB019C9129172C
:1027100008F480838F5FEACF3196892F8B19BA0135
:10272000690F711D282F082E000C330B2617370751
:10273000BCF6803520F42C0D3D1DD901AC928F5F85
:10274000F1CF60E289E20E940D0381E00E9448031C
:1027500060E289E20E940D03C05BDF4FCDBFDEBFA8
:10276000DF91CF911F910F91FF90EF90DF90CF906D
:10277000BF90AF909F908F907F900895AF92BF923F
:10278000CF92DF92EF92FF920F931F93CF93DF933D
:10279000E091E2218E2F90E08F30910508F078C112
:1027A000FC01EA54FF4F0C94881F88E20E942D031D
:1027B00088E092E00E94A61080E090E00E94220350
:1027C00081E0809316228093172296E59093182239
:1027D00090911022909319229091112290931A2295
:1027E0009091122290931B229091132290931C227D
:1027F0009091142290931D229091152290931E2265
:102800008093E22182E50E94440381E00E94480314
:1028100089E00E94AE1A82E08093E22188EB9BE07F
:1028200039C10E948F16EB010E948F166C1B7D0B25
:10283000643F714080F083E50E94440382E00E947F
:10284000480360E885E00E940D0383E08093E22165
:1028500080E395E71FC182E00E94D90287FDE4CFA3
:10286000EACF87E00E94D9028A718A3109F047C015
:102870008AE00E94D9028F3009F041C089E00E94AD
:10288000D9028F30E1F56FE086E192E20E94B50255
:1028900080911622833099F590911922809110220F
:1028A00098132DC090911A2280911122981327C05D
:1028B00090911B2280911222981321C090911C228A
:1028C0008091132298131BC090911D228091142295
:1028D000981315C090911E228091152298130FC055
:1028E00085E08093162284E50E94440381E00E94E3
:1028F000480384E08093E22180ED97E0CBC081E043
:102900008093E22184EF91E0C5C08FE00E94AE1A6F
:102910008091E2218F5F8093E22188EF91E1BAC03C
:1029200080910C22806880930C220DE428E045E021
:1029300063E08DEA91E20E9409138091AD218093BA
:10294000B021E0901122F12C80911222A82EB12CFE
:10295000C0911322D0E00091152210E0C090142203
:10296000D12C809110229701280F311DC9018A0DA9
:102970009B1D8C0F9D1F801B910B992763E170E0BD
:102980000E94741FB3E0880F991FBA95E1F78A5D22
:102990009B4F0E94A610C5018C0F9D1F8C199D098D
:1029A000800F911F982F8827EC18FD080E0D1F1D12
:1029B000802B0E9422038BE08093E22188E20E9418
:1029C0002D038AEA80931622C2E3D0E2E7E1F2E225
:1029D00020E030E040E050E0BA01A991B0E0AA0F59
:1029E000BB1FAD51BE4D8D919C91DC01AA0FBB1F49
:1029F000AA0FBB1F8A0F9B1FA3E096958795AA95E8
:102A0000E1F78138910538F08038A4E09A0730F476
:102A10008058910905C080E090E002C08FEF93E0FC
:102A20008193892F9927022E02C0880F991F0A943B
:102A3000E2F7A0E0B0E0482B592B6A2B7B2B2E5FEE
:102A40003F4F2831310549F64093232250932422E9
:102A500010922522E091E221F0E0EE55FE4D8081BA
:102A60000E94440381E00E94480380E10E94AE1A64
:102A70008091E2218E3031F48BE08093E2218CE46E
:102A800096E308C08F5F8093E2218EED9DE002C047
:102A900080E090E0DF91CF911F910F91FF90EF9038
:102AA000DF90CF90BF90AF900895CF93DF93C0E3B6
:102AB000D2E0FE0131966491FE0184910E940D03E3
:102AC0002296F2E0CE33DF07A1F7DF91CF91089590
:102AD0007F928F929F92AF92BF92CF92DF92EF92AE
:102AE000FF920F931F93CF93DF93CDB7DEB760971D
:102AF000CDBFDEBF8091102290E0982F88272091D3
:102B00001122820F911D2091E221253021F02A30DF
:102B100011F0809590950E942203F090EE208F2D69
:102B200090E09C0123553E4D5901D9018C91E090D4
:102B3000ED20EA94EA94B1E0BE1540F090E00297EF
:102B400065E070E00E94741F982F03C065E00E944A
:102B5000541F7090EB20FE0131966F01F8E09F9FAB
:102B6000800111249801270D311D43E0220F331FEE
:102B70004A95E1F7D60180E090E04601FC01E20FC2
:102B8000F31FEA51FD4FE491ED93019688309105D2
:102B9000A9F748E0B60182E20E94E90287E08719BE
:102BA0009801280F311D93E0220F331F9A95E1F70A
:102BB00080E090E0FC01E20FF31FEA51FD4FE49149
:102BC000D601ED936D0101968830910599F7DE01EC
:102BD000199688E08719080F111D83E0000F111F57
:102BE0008A95E1F780E090E0F801E80FF91FEA51DB
:102BF000FD4FE491ED93019688309105A9F740E1EE
:102C0000B40183E20E94E902F50180810E9444033D
:102C100081E08F0DF1E0FE1530F067E10E94541F56
:102C20009093EE2003C081708093EE206096CDBF1C
:102C3000DEBFDF91CF911F910F91FF90EF90DF905A
:102C4000CF90BF90AF909F908F907F90089590917C
:102C5000892190938A218091ED20843009F49CE0B1
:102C60009093EC209091EC209450993018F096E0DD
:102C70009093EC209091EC202CEF290F38EF390F36
:102C8000333028F48D7F813011F421E0290FA6E73D
:102C9000B1E28EE0289F9001112480E090E0FC01D9
:102CA000E20FF31FE25CFD4FE491ED9301968E304D
:102CB0009105A9F70895CF93DF93C0E1D2E0FE011B
:102CC00031966491FE0184910E940D032296F2E0F8
:102CD000C033DF07A1F7C0E1C093660684EA0E9413
:102CE000940284E00E94940283E30E94940283E3AE
:102CF0000E949402C093650681E6DF91CF910C9407
:102D00004403019759F0880F991F880F991F029764
:102D100001970000000000000000D1F70895EFB710
:102D2000F8942091600830916108EFBF8091732181
:102D300090E04091742150917521841B950B820F76
:102D4000931F482F4170409373219695879540912A
:102D50006F21509170216091712170917221F894CE
:102D6000480F591F611D711D40936F2150937021B1
:102D70006093712170937221209374213093752197
:102D8000EFBF20916D2130916E21820F931F80380B
:102D90002EE3920720F080589E4320E101C020E0FE
:102DA00080343FE1930718F0285F80549F41803AB8
:102DB0003FE0930718F02C5F805A9F40803D37E03A
:102DC000930718F02E5F805D9740883E33E09307AD
:102DD00018F02F5F885E93404091E7205091E820E3
:102DE0006091E9207091EA20420F511D611D711D13
:102DF0004093E7205093E8206093E9207093EA2005
:102E000080936D2190936E2160916F21709170215C
:102E1000809171219091722108952F923F924F924B
:102E20005F926F927F928F929F92AF92BF92CF925A
:102E3000DF92EF92FF920F931F93CF93DF93209136
:102E4000E221822F90E08E30910508F00FC2FC0144
:102E5000EB53FF4F0C94881F8091AB219091AC21D4
:102E60009C01215031092093AB213093AC21892B57
:102E700019F481E08093E22180E10E94AE1A9FC0A4
:102E800040E163E770E283E20E94E90282E00E948F
:102E9000480367E885E00E940D0388E592E080938F
:102EA000AB219093AC214FC087E00E94D902C82F7C
:102EB0008370823021F487E00E94D902C82B8C2FC6
:102EC0008770823009F047C060E887E00E940D03F8
:102ED00089E00E94D902C82F8C3108F0CBE16C2F19
:102EE00081EF90E20E94B502CA3009F045C0A1EF1F
:102EF000B0E2E0E1F2E241E080E791E021E05D91C3
:102F0000850F911D253020F430813095531340E01A
:102F10002F5F3196293099F72091F92030E0692F01
:102F200077272617370739F02091FA2030E09927C4
:102F30002817390709F54423F9F080E88093F02039
:102F400081E08093EF208091E2218F5F8093E221E6
:102F500080ED97E09BC1C1FD0FC060E289E20E9455
:102F60000D0382E00E94480360E089E20E940D03A5
:102F700063E885E00E940D038091AB219091AC2124
:102F800001978093AB219093AC21892B09F071C1FB
:102F90008091E2218F5F8093E2216BC180910C22AE
:102FA000806880930C220E94551581E00E9448039E
:102FB0001092EE2084E08093E2210E94681580E167
:102FC00097E264C188248394293019F02B3009F0EA
:102FD000812C90918A218091892198130E94271633
:102FE0002091ED203EEF320F90911222809113221A
:102FF000323028F490931622809317220BC09095BC
:1030000090931622809580931722211103C07AE0B5
:10301000972E02C06BE0962E0091FF2110910022A6
:10302000882019F087E090E002C080E090E09C01E9
:103030002A583E4D790126E1C22E22E2D22E312CB1
:1030400038E6432E36E0532E612C712C45E1242EB8
:1030500059E1A52EB12CF701C1917F01CF3F09F4B1
:1030600054C0D0E0FE01EE5BFF4DE081E230A9F4F8
:103070000D35F2E01F0788F40C3C110518F00C5CCC
:10308000110902C000E010E0209EC001219E900DB9
:103090001124B5010E94601F1FC0F0E0EE0FFF1F5A
:1030A000ED51FE4D20813181C901A0E0B0E09C01CD
:1030B000AD012C5C310941095109A0E6B5E00E943F
:1030C000001FA30192010E94E11EDA01C901805B89
:1030D0009E4FAF4FBF4FBC012AE0921202C07695BF
:1030E0006795882011F0332019F080E090E002C04D
:1030F00080E090E8092C02C0CC0FDD1F0A94E2F7B3
:10310000C62BD72BC82BD92B02C0CFEFDFEFF60190
:10311000D283C383339482E0C80ED11CE7E03E1211
:103120009ACF84E00E94D90280E10E94AE1A809179
:10313000E2218F5F8093E2218EE997E0A7C00E9491
:103140008F16C62F0E948F166C1B643628F0809154
:10315000E221853039F408C082E00E94D90287FD5F
:10316000F1CFF5CF8A30B1F484E00E94D9028272A7
:10317000803209F481C082E00E94D90287FD7CC0C0
:103180000E9468158091E2218F5F8093E2218CE09C
:1031900098E07CC0873019F488E20E942D0380916A
:1031A000E2218F5F8093E22182E00E94480367E87A
:1031B00085E00E940D0388E591E168C087E00E94E8
:1031C000D902C82F8370823021F487E00E94D9028F
:1031D000C82BC770C230C1F460E887E00E940D03BD
:1031E00089E00E94D9028C3108F08BE1682F81EFD1
:1031F00090E20E94B50283E10E94D9028F71809310
:10320000F02081E08093EF2060E289E20E940D03CC
:103210008091E2218830D9F48091ED208D7FA9F44E
:103220008091EC20883088F482E00E94480360E0BE
:1032300089E20E940D0367E885E00E940D038DE09E
:103240008093E22188EF9AE221C089E001C084E006
:103250008093E22181E00E94480360E089E20E94BD
:103260000D030E94681588E592E010C080E090E0B0
:103270000DC088E59BE10AC00E9469030E945B16AD
:103280000E94551581E00E9448037ACFDF91CF91CB
:103290001F910F91FF90EF90DF90CF90BF90AF9074
:1032A0009F908F907F906F905F904F903F902F9066
:1032B0000895CF92DF92EF92FF92CF93DF936B014D
:1032C0007C010E948F16EB01C114D10469F00E94A9
:1032D0008F166C1B7D0B683E7340B0F381E0C81AFB
:1032E000D108C851DC4FF0CFDF91CF91FF90EF9024
:1032F000DF90CF9008951F920F920FB60F92112476
:103300002F933F934F935F936F937F938F939F93ED
:10331000AF93BF93EF93FF939091E6208091E520C8
:10332000981789F08091E5208F5F8093E5208036A3
:1033300010F01092E520E091E520F0E0E35FFE4D13
:1033400080818093A0089091E5208091E6209813D9
:1033500002C00E94E003FF91EF91BF91AF919F9156
:103360008F917F916F915F914F913F912F910F902E
:103370000FBE0F901F9018959091E6209F5F90369A
:1033800008F090E0E92FF0E0E35FFE4D808390933A
:10339000E6200C94A7032091892180918A2182172D
:1033A00001F180910C2287FF1CC03091882180910F
:1033B000072290910822A0910922B0910A22830F3E
:1033C000911DA11DB11D8093842190938521A0930F
:1033D0008621B093872188E893E18093AB21909375
:1033E000AC21222341F08091AB219091AC21892B1B
:1033F00021F480E803C080E001C080EC2091E1214D
:1034000093E0921B892B80932022E091DF21F091A1
:10341000E021818180932122828180932222209148
:10342000842190918521809186212093232290935D
:1034300024228093252208956F927F928F929F92EB
:10344000AF92BF92CF92DF92EF92FF920F931F93B2
:10345000CF93DF9370903E228BE0870D806880933E
:10346000162224E0729EC0011124DC01AE5ABF4D29
:103470007D0106E112E2C7E0D0E09BE0692E28E67C
:10348000822E26E0922EA12CB12CCC24C394D12CD8
:10349000D701ED917D01F0E0EE0FFF1FED51FE4DE4
:1034A00020813181C901A0E0B0E09C01AD012C5C1C
:1034B000310941095109A0E8BCE00E94001FA501A3
:1034C00094010E94E11EBA01A901405456406109CD
:1034D0007109CA0157FF0BC088279927841B950BD8
:1034E00096010C2E01C0220F0A94EAF7622AF80115
:1034F000818392830E5F1F4F2197C330D10541F620
:1035000060921F227394F4E07F9EC00111240897FB
:103510001CF470923E2202C010923E22DF91CF91A5
:103520001F910F91FF90EF90DF90CF90BF90AF90E1
:103530009F908F907F906F900C94CB19A7E1B2E28F
:1035400080E0E82FE370F0E0E05FFD4D2C9190818A
:1035500092279D938F5F8F30A1F70895CF93C82F47
:10356000682F81E00E940D0363E482E00E940D0356
:103570004C2F66E172E280E20E94E90263E882E099
:10358000CF910C940D03CF93DF936FEF85E20E94F0
:103590000D0380E18093660685E20E949402C0E1FB
:1035A000D2E20E948002899382E2C631D807C9F72D
:1035B00080E18093650660E085E2DF91CF910C9415
:1035C0000D03FF920F931F93CF93DF93F090102280
:1035D000C0911122D0E000911222CE0146E09595D3
:1035E00087954A95E1F71F2D100F180F09F411E088
:1035F00081E00E944803812F90E0382F2227820F1C
:10360000931F0E942203CE0124E0F29E800D911DA3
:103610001124800F911D99276AE070E00E94741FA9
:1036200033E0880F991F3A95E1F78A5D9B4F0E941E
:10363000A61088E0DF91CF911F910F91FF900C941D
:103640002D030F931F93CF93DF938091402281111D
:10365000EFC081E080934022C091E221CC3048F459
:10366000C23008F082C0CC23C1F0C13009F461C07F
:10367000D1C0CC3009F0CEC087E8809316223091BB
:103680000D223170C2E5D0E2A6E1B2E280E090E026
:1036900020E060E870E019E19DC08091AB2190913D
:1036A000AC21009729F001978093AB219093AC2136
:1036B0008AE8809316229091AB218091AC2190935F
:1036C000172280931822E091DF21F091E021808180
:1036D00080931922818180931A22828180931B22F8
:1036E0008091102280931C228091112280931D22B0
:1036F0008091122280931E228091132280931F2298
:103700000E94CB19909123228091102289278093C7
:1037100023229091242280911122892780932422B0
:10372000909125228091122289278093252281E081
:103730006FC08091AB219091AC21009729F0019747
:103740008093AB219093AC210E941C1A0E949E1A78
:103750008091AB219091AC21892B21F482E0809360
:10376000E22119C01092E22155C00E941C1A0E9449
:103770009E1ACF5FC093E2218091AB219091AC2142
:10378000009709F447C001978093AB219093AC2137
:10379000892B09F03FC080910C22806880930C2215
:1037A00039C0332319F1FB01082E02C0F595E795C6
:1037B0000A94E2F72E2B149FF001159FF00D1124AF
:1037C0004CE94F0F11964C93119701961196883042
:1037D000910581F0E991F0E0EE0FFF1FE557FE4DF6
:1037E000408151814F3FE7E05E07D9F611961C9268
:1037F0001197EBCF20931F220E94CB1981E090916B
:103800003F22911180E080933F220E949E1A83E024
:103810008093E2218091E1218F5F843019F08093C1
:10382000E12102C01092E12180E10E94AE1A2EC077
:1038300010924022C5E184E00E94D90281FD03C0BC
:10384000C150C9F723C08091E221823029F485E07C
:103850008093E2210E94E11A8091E121811116C03A
:1038600088E00E942D03E091DF21F091E02181E2C8
:10387000EF3AF80711F0319602C0EDEAF1E2E09379
:10388000DF21F093E02180810E94440380EB94E0EB
:10389000DF91CF911F910F91089583EC8093520097
:1038A000809150008860809350008091510083FF88
:1038B000FCCF82EC80935500809150008061809312
:1038C00050008091510084FFFCCF88ED84BF10929E
:1038D000400084BF84E08093400087E08093A20092
:1038E00078948FEF8093020688E18093100680938E
:1038F000110680931206809313068093140680931A
:103900001506809316068093170697E19093650637
:1039100092EB909361069DE490936206809370060B
:103920008093720681E08093810682E08093820614
:1039300084E880938301109241081092420810920B
:1039400043081092440810924608109247088FEFDF
:103950009FEF80936608909367081092600810921A
:1039600061088BE08093400880E18093650680E2E7
:103970008093650680E88093660664E670E080E0E8
:1039800090E00E9459199091680680910C2292FD56
:1039900003C08F77806201C0806880930C221092F0
:1039A0000B22E3EEF1E283E092E220E034E02193A7
:1039B00031938E179F07D9F78CEC90E08093E72125
:1039C0009093E82182E080936506809361060E94CF
:1039D000690364E670E080E090E00E9459198DEF81
:1039E0008093002084E190E00E94AE1E803FE9F4C5
:1039F000CDE0D0E080E090E0DC01CC24D82EE92EB0
:103A0000FA2ECE010E94AE1EA7019601282BDA01E4
:103A1000C9012197C930D10581F7873A31E493076D
:103A200031EDA3073AE2B307F1F50E94571E4B01AF
:103A30005C010E94571E32E0432E55245394652C9E
:103A4000752CA30192010E94E11E7B01DD24CC2490
:103A5000C501B401A30192010E94E11EC60ED71E4A
:103A6000E81EF91E0AE010E0C0E0D0E0C701B60190
:103A70000C2E04C096958795779567950A94D2F792
:103A8000C8010E94BE1E28960F5F1F4FC032D1058D
:103A900069F760EF84E190E00E94BE1E4C2D3D2D41
:103AA0002E2D8F2D04C0482F392F2A2F8B2F409376
:103AB0000722309308222093092280930A22109231
:103AC000042210920522109206221092032288E00E
:103AD000809345068093410683E18093A608109267
:103AE000A70888E18093A4088091A3088C7C816159
:103AF0008093A3088BE28093A5088091A008809111
:103B000053068064809353068FEF9FEF10E120915E
:103B10000E2230910F22232BD1F020910D2227FD70
:103B200016C08139914098F480914C0884FF18C0E8
:103B3000F894809160089091610880936808909350
:103B40006908789411C080910D2287FFEDCF0E9403
:103B5000810480910E2290910F22892BA1F7F7CF3B
:103B600080914C0884FFFCCFC0910D228C2F88607F
:103B700080930D220E94E003C5FF09C0E0910E2250
:103B8000F0910F22309719F00995EC0102C0C0EDB9
:103B9000D7E080910D22877F80930D220E94A7039A
:103BA000C13A8FE0D807D8F0C05DD740F894809133
:103BB0006808909169088056904F809368089093A8
:103BC000690810934C0878940E948104811105C003
:103BD00080914C0884FFFCCFE3CFC0E0D0E0F894A4
:103BE0008091680890916908CC0FDD1FC80FD91F1C
:103BF000C0936808D093690810934C0880916808B6
:103C0000909169082091600830916108821B930BA4
:103C1000789497FDA9CF7BCF8F929F92AF92BF925E
:103C2000CF92DF92EF92FF92CF93DF93EC01688106
:103C300079818A819B81611571058105910521F446
:103C400064E279ED8BE597E02DE133EF41E050E060
:103C50000E94E11E49015A019B01AC01A7EAB1E4AF
:103C60000E94001F6B017C01ACEEB4EFA501940132
:103C70000E940E1FDC01CB018C0D9D1DAE1DBF1DD2
:103C8000B7FF03C00197A109B04888839983AA832D
:103C9000BB83BC01CD019F77DF91CF91FF90EF9067
:103CA000DF90CF90BF90AF909F908F9008958F92AC
:103CB0009F92AF92BF92CF92DF92EF92FF9260916C
:103CC00001207091022080910320909104206115C1
:103CD00071058105910521F464E279ED8BE597E0AA
:103CE0002DE133EF41E050E00E94E11E49015A010D
:103CF0009B01AC01A7EAB1E40E94001F6B017C01AB
:103D0000ACEEB4EFA50194010E940E1FDC01CB01C3
:103D10008C0D9D1DAE1DBF1DB7FF03C00197A109EE
:103D2000B0488093012090930220A0930320B09389
:103D30000420BC01CD019F77FF90EF90DF90CF90E2
:103D4000BF90AF909F908F900895609301207093E3
:103D500002208093032090930420089503D0808153
:103D600099270895E0ECF1E0378537FDFDCF3485E4
:103D700038603487FC01E050F04F0895262FE0ECC6
:103D8000F1E0378537FDFDCF3485377F34873785C0
:103D900031FF09C036E3328738ED34BF31E0338775
:103DA000378537FDFDCF33E33287808391831282DD
:103DB000248325E3228728ED31E024BF3387019651
:103DC0000895052E97FB1EF400940E94F81E57FDDF
:103DD00007D00E94131F07FC03D04EF40C94F81E6A
:103DE00050954095309521953F4F4F4F5F4F089527
:103DF00090958095709561957F4F8F4F9F4F089557
:103E00000E94351FA59F900DB49F900DA49F800D1B
:103E1000911D11240895B7FF0C94001F0E94001FEC
:103E2000821B930B0895A1E21A2EAA1BBB1BFD0156
:103E30000DC0AA1FBB1FEE1FFF1FA217B307E40789
:103E4000F50720F0A21BB30BE40BF50B661F771FE1
:103E5000881F991F1A9469F76095709580959095C1
:103E60009B01AC01BD01CF010895A29FB001B39F9A
:103E7000C001A39F700D811D1124911DB29F700D73
:103E8000811D1124911D0895DB018F939F930E9442
:103E9000001FBF91AF91A29F800D911DA39F900D18
:103EA000B29F900D11240895991B79E004C0991FC9
:103EB000961708F0961B881F7A95C9F78095089584
:103EC000AA1BBB1B51E107C0AA1FBB1FA617B70740
:103ED00010F0A61BB70B881F991F5A95A9F780955C
:103EE0009095BC01CD01089597FB072E16F4009420
:103EF00007D077FD09D00E94601F07FC05D03EF473
:103F0000909581959F4F0895709561957F4F089585
:103F1000EE0FFF1F0590F491E02D09946927962775
:103F200069277827872778270895DC0101C06D93DA
:0C3F300041505040E0F70895F894FFCF96
:103F3C00FD01000000DFB1C04962DFC14902F99305
:103F4C009702FA5CE3012BF1DB0132BE6F71053293
:103F5C00051306C534600025A523D0F000B945B083
:103F6C00F13A000102030405060708090A0B0C0DBF
:103F7C000E0F020001030405060708090A0B0C0DBD
:103F8C000E0F010002030405060708090A0B0C0DAD
:103F9C000E0FD7A154B15E89AE86C69422FE48E6B8
:103FAC00574E0098881BE430790384C92C069386FD
:043FBC00B99ED700D3
:00000001FF
