:100000000C945F020C947E020C947E020C947E028F
:100010000C947E020C947E020C947E020C947E0260
:100020000C947E020C947E020C947E020C947E0250
:100030000C947E020C947E020C947E020C947E0240
:100040000C947E020C947E020C947E020C947E0230
:100050000C947E020C947E020C947E020C94090493
:100060000C947E020C943B040C94C1140C947E02FC
:100070000C947E020C947E020C947E020C947E0200
:100080000C947E020C947E020C947E020C947E02F0
:100090000C947E020C947E020C947E020C947E02E0
:1000A0000C947E020C947E020C947E020C947E02D0
:1000B0000C947E020C947E020C947E020C947E02C0
:1000C0000C947E020C947E020C947E020C947E02B0
:1000D0000C947E020C947E020C947E020C947E02A0
:1000E0000C947E020C947E020C947E020C947E0290
:1000F0000C947E020C947E020C947E020C947E0280
:100100000C947E020C947E020C947E020C947E026F
:100110000C947E020C947E020C947E020C947E025F
:100120000C947E020C947E020C947E020C947E024F
:100130000C947E020C947E020C947E020C947E023F
:100140000C947E020C947E020C947E020C947E022F
:100150000C947E020C947E020C947E020C947E021F
:100160000C947E020C947E020C947E024613711352
:100170008013A013F413F413F413F413F413F4130F
:10018000FD134B14971497149714D519E919FD19F9
:10019000771A8B1A481B8B1A481B871B8B1A481B14
:1001A0008B1A481B871B5ACCAE46B631AE461CA7ED
:1001B000600404BF1315C5408A37E0E803A31D3867
:1001C0000308064A0B0010A41105120E1B551C054E
:1001D000323C351439011E101F0001100F10270288
:1001E00028020F2862DFC149DFB1C0493C37CC91FA
:1001F000E2F8CC919BC5A10FAD39A20FEF64B02AF4
:10020000D28FB12A66CD7C50DD267C505CE1F6446D
:10021000AD16F6445ACCAE46B631AE46A178DC3CBB
:100220009E82DC3CB98E19746F651874DFB1C049C9
:1002300062DFC14997E514727F1A147282C7903643
:100240002103FF17E2F8CC913C37CC91AD39A20FD6
:100250009BC5A10FD28FB12AEF64B02ADD267C5056
:1002600066CD7C50AD16F6445CE1F644B631AE4640
:100270005ACCAE469E82DC3CA178DC3C6F6518749B
:10028000B98E1974EF64B02AD28FB12A1D19323C8D
:1002900035141B551C05064A10E803080CC40D0450
:1002A0000F211E0015001600020005002802323C36
:1002B0003514064A1B551C05390101101402120A97
:1002C0000338104A1F041E1429200F242900032F6D
:1002D00010EA1F001E0001000203FFFFFF010002E1
:1002E00003FFFFFF0100020304FFFF0100020304FC
:1002F000FFFF010502030004FF010502030004FFE4
:1003000001050204030600010502040306000105BD
:10031000020306FFFF040007FFFFFFFF01050203C2
:1003200006FFFF04000708FFFFFF0105020306FFA9
:10033000FF0400070809FFFF01050203060AFF0486
:1003400000070809FFFF01050204060AFF00070372
:1003500008090BFF010502030607FF01050204005F
:10036000FFFF010502030607FF010502040008FF65
:10037000010502030408090105020300070603BC86
:100380006E8AEFBDFEF88817133B2DBF06D6F19499
:100390003021A11C88A9D0D28EBC822FE3B48CFA64
:1003A000479B83A566D007BD9F26C8310FB8EF03D2
:1003B0009589B471619D40BA97D5864FCCD183F7AA
:1003C000A82D7A4464D33F2C4EAA71487AC917FFEE
:1003D0009E213690C782BC5D9A5BEE7F42EB24F58E
:1003E000DDF87A7774E73D707C94DC84AD951E6A05
:1003F000F037527B11D462F52BAAFC33BFAF4056C5
:1004000032D90FD95D978E4AD0A9A7FF20CA4C9741
:100410009DBFB83DB5BE0C5D24309FCA6DBD501464
:1004200033DEF17895AD0C3CFAF9F0F210C9F4DA4C
:1004300006DBBF4E6FB39E08D1AE595EE8F0C090A8
:100440008FBB7C8E2B8E8069268008F849E77D2D36
:100450004954D08040C1B6F2E61B805A36B442AE51
:100460009C1CDA6705F69B75F7E0148DB580BF54C8
:1004700098B9B7305A8835D1FC9723D4C988E1D6CA
:1004800031265FBD4093DC68089997AEAF8CC30EF0
:1004900001160E3206BAE08301FAAB3E8FAC5CD592
:1004A0009CB8469C7D84F1C6FE5C9DA54FB758B5AF
:1004B000B3DD0E28F1B05F303B569645F4A1112410
:1004C0001FBECFEFCDBFDFE2DEBF80E08CBF10E20A
:1004D000A0E0B0E2ECE0FFE302C005900D92A4388A
:1004E000B107D9F722E2A4E8B0E201C01D92A1341D
:1004F000B207E1F70E94351C0C94841F0C94000095
:100500001F93CF93DF93C0E6D6E010E11E830E94D5
:1005100025150E9411151D83DF91CF911F9108951C
:10052000FF920F931F93CF93DF93F62E072F142F75
:1005300090E19093660680680E942515CF2DD02FFC
:10054000CE01810F911D8C01C017D10721F0899137
:100550000E942515F9CF80E180936506DF91CF9148
:100560001F910F91FF9008950F931F93CF93DF93E7
:10057000062FC0E6D6E010E11E8380680E94251594
:10058000802F0E9425151D83DF91CF911F910F9120
:100590000895CF93C92F682F85E10E94B4026C2F74
:1005A00086E1CF910C94B402CF9390910F2297FFE4
:1005B00002C0C7E001C0C0E093FDC1E0C82B80913C
:1005C0000020C81731F06C2F83E00E94B402C09362
:1005D0000020CF910895682F80E00C94B402CF934F
:1005E000C82F80910622C11108C0883221F064E230
:1005F0008FE00E94B40260E00FC0883241F0C13049
:1006000011F06CE201C068E28FE00E94B402C130D8
:1006100011F460E801C060E28EE0CF910C94B40266
:10062000019759F0880F991F880F991F029701971A
:100630000000000000000000D1F70895CF93C1E052
:10064000C093850684E690E00E941003C09386065E
:1006500084E690E00E94100361E08DE10E94B40204
:1006600088EC90E00E94100360EC8CE00E94B402E1
:1006700064E08DE00E94B40280E00E94EF0280E11D
:100680000E94800291E0853A09F090E0892FCF9195
:100690000895EFB7F8942091600830916108EFBF9A
:1006A0008091E62090E04091E7205091E820841B63
:1006B000950B820F931F482F41704093E62096952B
:1006C00087954091E2205091E3206091E420709161
:1006D000E520F894480F591F611D711D4093E220D9
:1006E0005093E3206093E4207093E5202093E7206B
:1006F0003093E820EFBF2091E0203091E120820F7D
:10070000931F80382EE3920720F080589E4320E10B
:1007100001C020E080343FE1930718F0285F805447
:100720009F41803A3FE0930718F02C5F805A9F402A
:10073000803D37E0930718F02E5F805D9740883E3C
:1007400033E0930718F02F5F885E93404091DC20E0
:100750005091DD206091DE207091DF20420F511D0D
:10076000611D711D4093DC205093DD206093DE20DD
:100770007093DF208093E0209093E1206091E2204D
:100780007091E3208091E4209091E5200895CF922C
:10079000DF92EF92FF92CF93DF936B017C010E9477
:1007A0004903EB01C114D10469F00E9449036C1B99
:1007B0007D0B683E7340B0F381E0C81AD108C85180
:1007C000DC4FF0CFDF91CF91FF90EF90DF90CF9093
:1007D00008950F931F93E0E3F1E290838183072F45
:1007E000182F292F332702836383007F6F70602BBC
:1007F00064831F910F91089580911022887141F4B4
:10080000F8948091A3088C7F81608093A3087894EA
:1008100008951F920F920FB60F9211242F933F93BA
:100820004F935F936F937F938F939F93AF93BF93F8
:10083000EF93FF9381E08093DB20E0E4F8E0878191
:10084000837F87830E94FC03FF91EF91BF91AF915B
:100850009F918F917F916F915F914F913F912F91D8
:100860000F900FBE0F901F901895E0EAF8E083817B
:100870008C7F838308951F920F920FB60F921124DD
:100880002F933F934F935F936F937F938F939F9398
:10089000AF93BF93EF93FF938091A1088C7151F4B4
:1008A000E091DA20EE23F9F08091DB20813009F02D
:1008B00048C019C08091A0088093DA2081E080931D
:1008C000DB208091DB20813009F05FC080914708F8
:1008D000837F80934708809110228F7E809310221F
:1008E0000E94FC0352C01092DA201092DB2080910B
:1008F00010228B7F809310229091A0089093C020AB
:100900009091C0209C7F9435E1F680618093102205
:100910000E94350480916008909161088C59964E30
:1009200080936A0890936B0880E280934C088091D2
:100930004708837F84608093470881E08093DA20B2
:10094000C0CF81E08E0F8093DA20F0E09091A00874
:10095000E054FF4D90838A3108F4B3CF8091102288
:1009600081FD0FC08AE1E0ECF0E2A6EAB0E201907E
:100970000D928A95E1F780910F22816080930F227A
:100980009DCF84608093102299CFFF91EF91BF910A
:10099000AF919F918F917F916F915F914F913F9117
:1009A0002F910F900FBE0F901F9018958F929F92CE
:1009B000AF92BF92CF92DF92EF92FF920F931F936D
:1009C000CF93DF93CDB7DEB72A97CDBFDEBF20919F
:1009D0000E222111A5C080910F2280FFA1C090910D
:1009E0001022392F326030931022382F3E7F3093FF
:1009F0000F224091A72045FF04C0386030930F229A
:100A000003C0867F80930F223091A72080910F2210
:100A100036FF02C0806101C08F7E80930F2230912B
:100A2000A82080910F2237FF02C08B7F01C0846015
:100A300080930F228091A92080932F218091A6205E
:100A400081FF0BC08091A6208D7F8093A6209360AC
:100A500090931022FF24F39401C0F12C9091A620D2
:100A6000809107229813C7C68091A72090910822F1
:100A700089278F7509F0BFC64091A820809109226F
:100A800084278F7709F0B7C66AC6809110228D7FC0
:100A900080931022F8948091102282FF11C09AE175
:100AA000E0ECF0E2A6EAB0E201900D929A95E1F74F
:100AB00090910F22916090930F228B7F8093102250
:100AC0007894EEEEF1E280E090E041E050E0619158
:100AD00071916135744038F0BA01082E01C0660F7B
:100AE0000A94EAF7262B01968830910581F7209326
:100AF0008420809110228062809310220E944903FA
:100B00008091DC209091DD20A091DE20B091DF204B
:100B10008093A2209093A320A093A420B093A5201B
:100B20008091102285FF20C00E9449038091DC2023
:100B30009091DD20A091DE20B091DF204091A22095
:100B40005091A3206091A4207091A520841B950B47
:100B5000A60BB70B87349105A105B10528F080914C
:100B600010228F7D809310220E94490380919C2047
:100B700090919D20A0919E20B0919F204091DC20DB
:100B80005091DD206091DE207091DF208417950761
:100B9000A607B707E0F52091102225FD09C0209196
:100BA0000E22211119C08C509E4FAF4FBF4F24C051
:100BB0004091112250911222452B41F4209164065C
:100BC00021FD0AC0C296A11DB11D16C027FF09C094
:100BD0002091640621FD0CC088519C4FAF4FBF4F40
:100BE0000BC020910F2227FF03C022E0209365064F
:100BF0008C599F4FAF4FBF4F80939C2090939D2067
:100C0000A0939E20B0939F2082E0809367069091EE
:100C1000EA208091E920981708F0805A891B8032D9
:100C200008F4E6C00E944903C090DC20D090DD208B
:100C3000E090DE20F090DF20809197209091982026
:100C4000A0919920B0919A20A7019601281B390BF9
:100C50004A0B5B0BDA01C901853F9140A105B10543
:100C600008F44EC08DE40E94021585E00E94021532
:100C70009091102295FB882780F920910E22211156
:100C800001C082602091112230911222232B09F1A0
:100C900097FF02C0846107C090910F2297FF02C0A6
:100CA000846001C08C60909106229F3089F028F406
:100CB000943051F0973069F40BC09C3149F09E316B
:100CC00039F0953131F404C090916B21913009F4E1
:100CD00080620E94021581E00E94021582E00E945B
:100CE000021581E00E94021587E10E940215C09260
:100CF0009720D0929820E0929920F0929A2078C084
:100D00009091D1219923C1F0809106228630A1F4DF
:100D10008AEA0E9402150BEE10E24CEFE42E40E24C
:100D2000F42ED8018D918D010E940215E016F10676
:100D3000C1F71092D1215CC090FF5AC08091062269
:100D40008F3009F455C02EEF20938520833059F45D
:100D50001092862010928720109288209E7F9260A9
:100D60009093D12117C0982F9F7D923059F08C31EC
:100D700049F08E3039F08C3229F0873219F08952DF
:100D8000823040F4109286201092872010928820A2
:100D90001092D1211092892010928A2010928B20DB
:100DA00010928D2010928C208EE70E94021505E88B
:100DB00010E22EE8C22E20E2D22E30E2E32E5801BD
:100DC000F801F08083E88F0D823030F48DE70E94C7
:100DD0000215FE24D801FC920F5F1F4FF5018081A0
:100DE0000E940215C016D10651F78EE70E94021527
:100DF00080910F2284FF19C09091102296FD15C09A
:100E000020910422309105222139354070F0209143
:100E1000EA213091EB212E3F310538F48F77826043
:100E200080930F2290649093102290910F2294FF50
:100E30001BC08091102286FF17C0209104223091A0
:100E400005222031334080F48F7B80931022209143
:100E50003521309136212330310530F022E030E069
:100E60002093352130933621892F827091FF0CC554
:100E70008091102287FD1EC410921122109212221E
:100E80001092A0201092A12082E0809365060E941B
:100E90001E0364E670E080E090E00E94C7038DEFDF
:100EA000809300200E9435041092D1211092E920F5
:100EB0001092EA2080911022877E80931022209148
:100EC000D22180910A2290910B22A0910C22B09104
:100ED0000D22BC01CD01620F711D811D911D60931A
:100EE00028217093292180932A2190932B210E94FD
:100EF000E903E8E0F1E280E094E08193919351E22C
:100F0000E832F507D1F78CEC90E080930C219093B8
:100F10000D21809110228160809310220E9449034C
:100F20008091DC209091DD20A091DE20B091DF2027
:100F300080939C2090939D20A0939E20B0939F200F
:100F400080910622863109F454C340F4863069F05A
:100F5000873009F0AFC30EEB11E0F1C18E3109F417
:100F60007AC2883209F463C1A5C30E94171C90910C
:100F700016228091D22189278093162290911322E4
:100F800080911422890F8E5F90911522890F8770AE
:100F90008093CF21811119C08091302163E00E949C
:100FA0003C1FE92FF0E0ED5EFD4D908181E0892747
:100FB00080839091132280911422890F8E5F9091EB
:100FC0001522890F87708093CF2180916B218250E9
:100FD000823008F067C060911322709114228091D2
:100FE0001522909116220E94761F009116226B0105
:100FF0007C01C094D094E094F09410E099E4892EA0
:10100000912CA12CB12CA70196016DE076E689E127
:1010100090E00E942C1F6B017C01A1EACA1AACE08F
:10102000DA0AA1E9EA0AA3ECFA0A99278F2D7E2DA4
:101030006D2DA50194010E94FB1E83E0860F902F69
:10104000982790FF03C01731F0F26DC0E7E3F1E29B
:1010500090E020E030E040E0411771F051918517B9
:1010600091F35C3110F43F5F05C0543310F42F5FEF
:1010700001C09F5F4F5FF0CF8C3110F4383058F0D3
:101080006951683110F4273030F0843308F4BBCF55
:10109000983008F0B8CFE12FF0E0E95CFE4D808396
:1010A0001F5FD1CF0BE423E045E06AE0CE0101965B
:1010B0000E94DD180E943F1E22E031E041E051E035
:1010C0000E94C91E2AE030E040E050E00E94C91EA4
:1010D000E1E0F0E0EC0FFD1FE60FF11D8081809351
:1010E0003721A2E08A2E99249394A92CB92CBAE036
:1010F000CB2ED12CE12CF12C0E943F1EA501940196
:101100000E94C91EA70196010E94C91EE1E0F0E0FD
:10111000EC0FFD1FE60FF11D80819091372189179B
:1011200059F3809338210E94291781E00E94EF0231
:101130000E94F51680910F2287FD6DC08DE00E9400
:10114000EB0240E162E670E283E20E94900230919D
:101150001322309530931922209114222095209348
:101160001A2290911522909590931B22809116221D
:10117000809580931C2230931D2220931E229093F1
:101180001F2280932022A9E1B2E2E1E2F2E280E7AD
:1011900091E02D91820F911D22E2A132B207C9F791
:1011A000909321228093222221E0209323223091C8
:1011B000D0213093242220916B21211106C0383098
:1011C00010F431E009C032E007C0213011F432E1FF
:1011D00003C0223019F432EB309325222350223001
:1011E00018F422EB209325221092262227E232E2E5
:1011F0004191840F911D2E173F07D1F7909327221D
:101200008093282210922E218CE291E08093352148
:101210009093362103C083E080932E2180E197E2F2
:101220008093A0209093A12086EB99E13FC20E9479
:101230003F1E22E031E041E051E00E94C91E2EE055
:1012400030E040E050E00E94C91E362F2AE0260F11
:10125000822F63E00E943C1F911102C02BE0230FFC
:10126000109131211370812F880F180F145F109384
:101270009B20209337218EE1820F80933821235DBC
:101280002093392110933A2180910F2287FD4BC082
:101290008CED95E08093352190933621ECE8EE2E8D
:1012A000E2E0FE2EF8EACF2EF2E0DF2EF7013196D3
:1012B0006491F70184910E94B402F2E0EF0EF11CF8
:1012C000CE14DF0499F786EA91E00E944F1789E077
:1012D0000E94EB0281E00E94EF024EEA51E0A9E198
:1012E000B2E2CD01FA012491FC012193CF014F5FBD
:1012F0005F4FF2E289329F07A9F7809132218093F4
:101300001E228091332180931F221093202280E09F
:101310009D91890F22E2A832B207D1F7809328224B
:1013200010922E2103C083E080932E2180E197E26A
:101330008093A0209093A12086EF90E1B7C1F8019F
:1013400031966491F80184910E94B4020E5F1F4FA0
:10135000F1E0043E1F0799F70E94171C81E00E94EC
:10136000EF0280E090E00E94C9028CEE91E00E94C2
:101370004F1700E524E044E063E087E391E20E9438
:10138000DD188091372180933A21909138219093F4
:101390003B2127E331E22093D3213093D4210E94D3
:1013A000EB0210926A2180912F2180932C218111D0
:1013B00040C0209137218091132228278091162246
:1013C0002827609138218091142268278091172264
:1013D0006827862F90E0A0E0B0E0BA2FA92F982FC1
:1013E0008827A22B30913921209115222327309173
:1013F00018222327BC01CD01622B20E432E44FE008
:1014000050E00E94FB1E6093282170932921809355
:101410002A2190932B2188E893E1809335219093A2
:10142000362110922E2180910F228F7780930F22E8
:1014300009C083E080932E2110923521109236212D
:101440000E946F1780E699E08093A0209093A120DE
:101450008FEA97E12BC188E20E94D4026AE486E019
:101460000E94B40260E08BE00E94B40260EC8CE069
:101470000E94B40264E08DE00E94B4026CE28FE04E
:101480000E94B4026EEE80E10E94B40265E58BE139
:101490000E94B40265E08CE10E94B40268E18DE133
:1014A0000E94B4026CE382E30E94B40264E185E32B
:1014B0000E94B40260E98EE10E94B40260E08FE114
:1014C0000E94B40260E181E00E94B4026CE28FE00D
:1014D0000E94B40262E088E20E94B40262E087E205
:1014E0000E94B40248E065E070E282E20E9490024D
:1014F00068E28FE00E94B40260E18EE10E94B402D3
:1015000060E28EE00E94B4026CE28FE00E94B402BE
:1015100081E00E94EF021092692100E524E044E09E
:1015200063E087E391E20E94DD18809137210E94F9
:10153000EB0210926A2110926C2110922D21809161
:101540002F2180932C2190916B21911102C0811148
:1015500035C00E94171C9091372180911322892752
:101560009091162289278295807F809332219091D5
:1015700038218091142289279091172289278093FE
:10158000312190913921809115228927909118223B
:1015900089278093302190916B21913019F48160DB
:1015A0008093302184EA9BE080933521909336210B
:1015B00010922E2180910F228F7710C080913321BD
:1015C0008295807F809332211092352110923621AE
:1015D00081E080932E2180910F22806880930F22DA
:1015E00080EF9AE08093A0209093A12080EF9CE070
:1015F0005DC062E088E20E94B4026CE382E30E9474
:10160000B40264E185E30E94B40265E08CE10E94CB
:10161000B40265E58BE10E94B4026AE486E00E94B0
:10162000B40288E20E94D4026EE082E10E94B40219
:101630006EEE80E10E94B40260E08FE10E94B4028D
:1016400060E08EE10E94B40240E16DE070E283E26E
:101650000E94900210E11093660684EA0E9425150C
:1016600082E00E94251583E30E94251583E30E94F2
:101670002515109365060E94171C909116228091E3
:10168000D221890F8093162280910F2287FD03C0FB
:1016900010922E2103C08AE080932E2180E699E0EB
:1016A0008093A0209093A1208FE293E18093112258
:1016B0009093122290910F228091102294FF0EC0DD
:1016C00086FD0CC02091082227FD08C020910E2223
:1016D000211104C08068809310223FC08F778093CF
:1016E00010229D7F90930F22E090A020F090A120E7
:1016F00021E0E2162DE7F206B0F08701012F112755
:101700000695069502501109B80180E090E00E940C
:10171000C703102F0027110F110FE01AF10AE092F2
:10172000A020F092A120F8942091600830916108E7
:101730008091A0209091A120880F991F820F931F64
:10174000809368089093690880E180934C087894AE
:1017500080910F228F7D80930F2281E095C0809130
:10176000A72087FF7DC097FD7BC080910F228F77D8
:10177000826080930F228091A6208093072280911F
:10178000A720809308228091A82080930922E8E076
:10179000F1E246EE51E268E271E2A9EAB0E23DEF21
:1017A00083E0830F883018F03550119601C0382F30
:1017B0008D010F5F1F4F11968D919D910D90BC91E2
:1017C000A02D032E04C0B695A795979587950A94EA
:1017D000D2F79770FF2019F08083918303C0DA015C
:1017E0008D939C9332964E5F5F4F6E177F0709F47F
:1017F0004CC9D801D5CF80910F22982F9260909339
:101800000F22909110229F77909310229091A72001
:1018100097FD02C084FF03C08F77826001C0826899
:1018200080930F228091A620853511F480E001C0BD
:1018300080E29091A7209F71890F8093062280916A
:10184000A82090E054E0959587955A95E1F7877028
:1018500080936B218091A8208F708093D2218BCFB1
:101860008091A72087FD87CF97FF85CF8091352175
:1018700090913621039708F47ECF82E090E0809328
:1018800035219093362177CF2A96CDBFDEBFDF91E9
:10189000CF911F910F91FF90EF90DF90CF90BF906D
:1018A000AF909F908F900895CF92DF92EF92FF922A
:1018B0000F931F93CF93DF936A017B01E901E82F18
:1018C000F0E0ED5DFF4DE081F0E0EE0FFF1FEA512B
:1018D000FE4D20813181C901A0E0B0E09C01AD0145
:1018E0002C5C310941095109D601AA0FBB1F0E9486
:1018F000F31E28E636E040E050E00E94C91ED19475
:10190000C194D1080D2C000CEE08FF08D701C601C8
:10191000820F931FA41FB51F9E01280F391FCE01F0
:10192000801B910B281739070CF49C01CE01800F06
:10193000911F281739070CF4C901DF91CF911F912E
:101940000F91FF90EF90DF90CF900895E9E1F2E2E0
:10195000982F2191820F922722E2E732F207C9F7EE
:1019600090932722809328220895FC018081809300
:101970001922818180931A228091372180931B2222
:101980008091382180931C22828180931D22809136
:10199000392180931E228FEF80931F2210922022E4
:1019A0001092212282E38093222280916B219091D8
:1019B0003021813011F49E709061909323228091A8
:1019C0003121809324229091322180916A21892BA8
:1019D0008093252283818093262284810C94A60CF7
:1019E0006F927F928F929F92AF92BF92CF92DF922F
:1019F000EF92FF920F931F93CF93DF93C0906C21D0
:101A0000C110A9C3C1E0C0936C21D0916B21D11149
:101A10002CC1D0912E21D83018F4D13028F01DC01F
:101A2000D83009F476C087C3009135211091362152
:101A300001501109009335211093362183E390E280
:101A40000E94B50C012B09F076C380910F228068AB
:101A500080930F22C0932E216EC3C12CD12C712CE8
:101A6000C0E0E12CF12C88248394912C8C2D8430BF
:101A700011F4772473940FEF13E020E030E042EC90
:101A800051E060E070E00E94540C9C0197FF04C09C
:101A900022273327281B390BF601E75EFD4DE70DA2
:101AA000F11D2083EE0CFF1CEE0CFF1CA32EB12CAD
:101AB000950123703327E22AF32A97FF07C0C40158
:101AC0000C2C01C0880F0A94EAF7C82B6FEFC61AD6
:101AD000D60A88E0C816D10449F6F0921D22E09299
:101AE0002222809130218093232280913121809382
:101AF00024229091322180916A21892B8093252282
:101B0000C093262285E20E94A60CDF5FD0932E218F
:101B100012C380912D21C827C0932D21D0912F2150
:101B200080912C218D17D1F080910F2287FF16C054
:101B3000609128217091292180912A2190912B2157
:101B40000E94E903809133218295807F8093322126
:101B500085E791E08093352190933621DD2341F094
:101B60008091352190913621892B21F0D4EE03C04C
:101B7000D9E901C0DBE100911022017094E0C99F16
:101B8000900111242D5D3F4DA9E1B2E280E090E08B
:101B900010E061E070E0F90141919F01E42FF0E075
:101BA000EE0FFF1FE85FFE4D408151814F3FF7E090
:101BB0005F0791F0002381F0E3E056954795EA95A1
:101BC000E1F711964C931197AB01082E01C0440F19
:101BD0000A94EAF7142B03C011961C9211970196F0
:101BE000119684309105B9F61093192280911D2227
:101BF00080931E22C295CC0FCC0FC07CC0931D22B7
:101C00008091372180931F22809138218093202258
:101C10008091392180932122D093222280913021FA
:101C2000809323228091312180932422909132212C
:101C300080916A21892B80932522109226228CE1A3
:101C40000E94A60C81E080932E21809135219091F5
:101C50003621009709F46FC2019780933521909344
:101C60003621892B09F49CC066C280913521909160
:101C70003621D13009F085C0EC01892B41F0219744
:101C8000C0933521D093362188E390E284C0D12CD3
:101C9000A12CB12CE12CF2E0FF2E8C2FC23011F4DC
:101CA000DD24D39400E01AE020E030E040E058E08A
:101CB00060E070E00E94540C9C0197FF04C0222752
:101CC0003327281B390BA9015595479555954795FD
:101CD000411562E0560718F42370332708C0525CA0
:101CE0009A01220F331F220F331F4FEF51E097FD50
:101CF00004C05E5FC9019E5F07C0C701841B950BCE
:101D0000AC01C701821B930BFE01EE0FFF1FED0D0F
:101D1000F11DE75EFD4D4083818324E0AA0CBB1CCE
:101D20002A95E1F736E0569547953A95E1F74C70DC
:101D30005527292F332723703327CA01822B932B52
:101D4000A82AB92A2196C430D10509F0A6CFB092AD
:101D50001D22A0922222809130218E70806E80936D
:101D600023228091312180932422909132218091ED
:101D70006A21892B8093252280EF8093262280E0A0
:101D8000D8C1009799F0EC012197C0933521D093E9
:101D900036218DE390E20E94B50CCD2B09F0CBC12A
:101DA00080910F22806880930F22C5C180906A21A4
:101DB000882D63E00E943C1FB92E19E1E12E12E24A
:101DC000F12E712CC0E00FEF11E020E030E040E98F
:101DD00051E060E070E08C2F0E94540C9C0197FF52
:101DE00004C022273327281B390BF70121937F01D9
:101DF000832F8170770C770C782A892F881F88278A
:101E0000881F880F782ACF5FC430E9F670921D22B0
:101E1000B11012C000E012E020E032E040E052E0F9
:101E200060E070E086E00E94540C982EA92EE12C10
:101E3000F12CD230E1F40EC0D23099F4F1E0912CC3
:101E4000C2E0AC2EBF1621F0E12CB2E0FB2E02C0A6
:101E5000E12CF12C1092202210922122C92DDA2D92
:101E60001DC1912CF2E0AF2EE12CA2E0FA2ED3306E
:101E700009F0DEC008EE13E020E030E048EE53E069
:101E800060E070E082E00E94540C9C011816190674
:101E900094F58C3063E09607E4F0092E000CAA0B51
:101EA000BB0B9C01AD012C50334041095109A5E207
:101EB000B1E00E94E81E2CED30E040E050E00E94CE
:101EC000C91E69018AEDC80ED11C612CC0E0D0E0AA
:101ED00047C04FEF53E0249FC001259F900D349FD2
:101EE000900D112464EF7CEF0E945C1FEB01C15048
:101EF000DC4F612C5EC13195219531092C3093E086
:101F00003907ECF0C901330FAA0BBB0B9C01AD01E3
:101F10002C50334041095109A5E2B1E00E94E81E6E
:101F20002CED30E040E050E00E94C91E6901EAED6E
:101F3000CE0ED11C66246394CFEFD3E011C04FEFD7
:101F400053E0249FC001259F900D349F900D1124D4
:101F50006CE073E00E945C1FEB016624639429C16E
:101F6000C114F2E0DF0624F0CC24CA94DD24D3941B
:101F7000C0921B22C60176E0959587957A95E1F788
:101F8000982F9470872D837F792E782A70921D2246
:101F900000E014E020E030E040E054E060E070E079
:101FA00085E00E94540C8C0197FF06C011950195A5
:101FB00011097724739401C0712C61E0B6121FC01F
:101FC0008BEDC816D10414F1D80164E0AA0FBB1F31
:101FD0006A95E1F7A601DD0C660B770B9A01AB0160
:101FE0002A5D3109410951090E94F31E2CE83DE8A0
:101FF0004FEF5FEF0E94C91E020F131F07C092E050
:10200000B91639F08701C92DDA2D05C0C0E0D0E03E
:1020100002C000E012E06294660C50EE6522770C7C
:10202000770C76287092202210922122780136C0F7
:10203000DD24D394D53009F0D12C00E014E020E069
:1020400030E040E054E060E070E085E00E94540C35
:10205000EC012D2D220F220FE1E097FF07C0BE12E9
:10206000B1C0D195C195D10930E003C0BE12A5C061
:1020700031E080912F21982F990F990F80E064E62D
:1020800070E00E945C1F7B01FCEFFF1A209320226E
:10209000332311F042E0C42EC0922122C11564E026
:1020A000D60714F0CFEFD3E0E11484E0F80624F073
:1020B000EE24EA9433E0F32EE0921E22C0931F2216
:1020C0000FEF11E020E030E040E951E060E070E027
:1020D00084E00E94540C21E0181619060CF020E050
:1020E00080912122282B2093212294E0D595C79519
:1020F0009A95E1F7C073C701959587959595879552
:10210000807CEC2EE82A8B2D8460E82AE092222243
:102110008091302180932322809131218093242249
:1021200080913221882A809225228FEF8093262267
:102130008AE30E94A60C80916A2190E001966CE0EF
:1021400070E00E945C1F80936A2180E10E94021C63
:1021500080E496E03CC010926C210E944903C62F97
:10216000D0E00E94490370E06C1B7D0B6436710562
:10217000BCF080916A218370C9F4809169218F5FDE
:1021800063E00E943C1F90936921E92FF0E0E95C35
:10219000FE4D80810E94EB0288E20E94D40206C0BC
:1021A00084E00E94800281FFDCCFE3CF80EB94E0EB
:1021B0000EC08AEDC82ED12CDBCE20932022C92D53
:1021C000DA2D68CF20932022C92DDA2D65CFDF913B
:1021D000CF911F910F91FF90EF90DF90CF90BF9024
:1021E000AF909F908F907F906F9008954F925F92E5
:1021F0006F927F929F92AF92BF92CF92DF92EF92B7
:10220000FF920F931F93CF93DF9380912E21823003
:1022100009F447C048F4882371F0813009F0F6C111
:102220000E944903C62F2AC0833009F497C0843026
:1022300009F4B8C0EBC181E00E94EF0280E10E9486
:10224000021C81E080932E218091352190913621CE
:1022500001978093352190933621892B09F0D9C1BC
:1022600080910F22806880930F2283E080932E213B
:10227000D0C182E00E94800287FF05C00E9449030E
:102280006C1B683CB0F382E00E94EF0263E885E0DB
:102290000E94B4028AE08093CE2182E080932E21B6
:1022A000CCC187E00E948002C82F8370823021F465
:1022B00087E00E948002C82B60E887E00E94B40299
:1022C0008C2F87708230F1F589E00E948002803186
:1022D000C9F560E18BEE90E20E949219EBEEF0E21C
:1022E000A9E1B2E24AEF50E280E090E021913D9115
:1022F000231301C08F5F920F4E175F07B9F720912C
:10230000FA2092131AC08A30C0F08091ED208436F2
:1023100059F480910F22806880930F2283E080938C
:102320002E2180E197E28BC180E1EBEEF0E2A9E1A2
:10233000B2E201900D928A95E1F710922E2188EC7D
:1023400090E07DC1C57809F06AC18091CE218150AD
:102350008093CE21882309F462C16FC1CCE8D2E01A
:10236000FE0131966491FE0184910E94B40222968E
:10237000F2E0C23ADF07A1F76091322185E10E94C5
:10238000B4026091332186E10E94B40284E892E0B5
:102390000E944F1781E00E94EF0210926A2184E0B0
:1023A00080932E210E944903C62F0E9449036C1B73
:1023B000683C68F180916A218F5F80936A219091D7
:1023C0003221909319229091332190931A22982FC1
:1023D0009370992EE3E09E1320C080E780931B2228
:1023E00084E080931C2210921D2280931E228091F3
:1023F000372180931F22809320228091382180935F
:10240000212280913921809322228AE052C082E0E9
:102410000E94800287FDC9CFCDCF10912F211430AB
:1024200008F450C01A3008F04DC09DEF910F909302
:102430001B2290E0959587959595879580931C2212
:1024400066EEA62E61E2B62EC9E1D2E209E078E698
:10245000472E76E0572E612C712CF50120813181B9
:10246000C901A0E0B0E09C01AD012C5C310941093B
:102470005109A8EBB2E00E94E81EA30192010E945C
:10248000C91EBA01A90149565F4F6F4F7F4F842F74
:102490008295880F880F807C9B81892B8B839A0182
:1024A00036952795369527952C838CEF800F113024
:1024B00059F48093CD211091CD21E9E1F2E290E031
:1024C00080E080C019E0B1CFF50122813381C901DC
:1024D000A0E0B0E09C01AD012C5C3109410951093B
:1024E000A8EBB2E00E94E81EA30192010E94C91E5F
:1024F000DA01C90189569F4FAF4FBF4F8D83C92E57
:10250000DD24CE828EEF800F123099F2F501248106
:102510003581C901A0E0B0E09C01AD012C5C31091E
:1025200041095109A8EBB2E00E94E81EA301920103
:102530000E94C91EBA01A90149565F4F6F4F7F4FD4
:10254000842F880F880FC82ACE827A0126E0F6945D
:10255000E7942A95E1F7EF828FEF800F133009F4AB
:10256000A8CFF50126813781C901A0E0B0E09C0128
:10257000AD012C5C310941095109A8EBB2E00E9480
:10258000E81EA30192010E94C91EBA01A901495681
:102590005F4F6F4F7F4F842F8295807FE82AEF82B5
:1025A0009A0194E0369527959A95E1F7288714507B
:1025B00019F40093CD217FCF0B5FF8E0AF0EB11C73
:1025C00025964BCF191721F02191820F9F5FFACFEB
:1025D000E12FF0E0E75EFD4D8083C92DD0E0FE01E4
:1025E000E95CFE4D80810E94EB0288E00E94D402EB
:1025F00081E0810F0E94021C83E0981669F0CC0FE5
:10260000DD1FC35EDF4D8881998119C088EE93E09C
:1026100016C084EC99E013C085E494E010C060E239
:1026200089E20E94B40261E28FE00E94B40260E09D
:1026300089E20E94B40210922E218CEB92E0DF918D
:10264000CF911F910F91FF90EF90DF90CF90BF90AF
:10265000AF909F907F906F905F904F900895AF9252
:10266000BF92CF92DF92EF92FF920F931F93CF937F
:10267000DF93C0912E218C2F90E08F30910508F0D0
:1026800073C1FC01EA54FF4F0C94701F88E20E9452
:10269000D40284EE91E00E944F1780E090E00E9407
:1026A000C90281E08093192280931A2286E58093E3
:1026B0001B228091132280931C22809114228093EC
:1026C0001D228091152280931E22809116228093D4
:1026D0001F228091172280932022809118228093BC
:1026E000212282E50E94EB0281E00E94EF0289E054
:1026F0000E94021C82E080932E2188EB9BE036C171
:102700000E944903EB010E9449036C1B7D0B643F4F
:10271000714080F083E50E94EB0282E00E94EF02AC
:1027200060E885E00E94B40283E080932E2180E37C
:1027300095E71CC182E00E94800287FDE4CFEACFCA
:1027400087E00E9480028A718A3109F047C08AE0DE
:102750000E9480028F3009F041C089E00E9480020F
:102760008F30E1F56FE089E192E20E949219809149
:102770001922833099F590911C228091132298138D
:102780002DC090911D2280911422981327C0909102
:102790001E2280911522981321C090911F228091B2
:1027A000162298131BC09091202280911722981313
:1027B00015C0909121228091182298130FC085E0B6
:1027C0008093192284E50E94EB0281E00E94EF02CF
:1027D00084E080932E2180ED97E0C8C081E0809353
:1027E0002E2184EF91E0C2C08FE00E94021CCF5FD7
:1027F000C0932E2188EF91E1B9C080910F228068AB
:1028000080930F220DE428E045E063E087E391E246
:102810000E94DD188091372180933A21E0901422A4
:10282000F12C80911522A82EB12CC0911622D0E057
:102830000091182210E0C0901722D12C8091132211
:102840009701280F311DC9018A0D9B1D8C0F9D1FFB
:10285000801B910B992763E170E00E945C1FB3E03D
:10286000880F991FBA95E1F784519E4F0E944F1728
:10287000C5018C0F9D1F8C199D09800F911F982FEA
:102880008827EC18FD080E0D1F1D802B0E94C90221
:102890008BE080932E2188E20E94D4028AEA809302
:1028A0001922C3E2D0E2EAE1F2E220E030E040E0C7
:1028B00050E0BA01A991B0E0AA0FBB1FAA51BE4DCA
:1028C0008D919C91DC01AA0FBB1FAA0FBB1F8A0F21
:1028D0009B1FA3E096958795AA95E1F7813891050E
:1028E00038F08038A4E09A0730F48058910905C088
:1028F00080E090E002C08FEF93E08193892F9927C9
:10290000022E02C0880F991F0A94E2F7A0E0B0E0FF
:10291000482B592B6A2B7B2B2E5F3F4F28313105DB
:1029200049F6409326225093272210922822C091E4
:102930002E21EC2FF0E0E45DFE4D80810E94EB0241
:1029400081E00E94EF0280E10E94021CCE3031F44F
:102950008BE080932E218CE496E308C0CF5FC09378
:102960002E218EED9DE002C080E090E0DF91CF91BE
:102970001F910F91FF90EF90DF90CF90BF90AF909D
:1029800008951F920F920FB60F9211242F933F9329
:102990004F935F936F937F938F939F93AF93BF9367
:1029A000EF93FF939091EA208091E920981789F0A6
:1029B0008091E9208F5F8093E920803610F010929B
:1029C000E920E091E920F0E0E359FE4D8081809319
:1029D000A0089091E9208091EA20981302C00E94FB
:1029E0003504FF91EF91BF91AF919F918F917F91AE
:1029F0006F915F914F913F912F910F900FBE0F906C
:102A00001F9018959091EA209F5F903608F090E013
:102A1000E92FF0E0E359FE4D80839093EA200C9477
:102A2000FC0398E080E020E8880F3091680636FDCE
:102A30008160209365060000000000002093660678
:102A400000000000915081F7089590E89093660689
:102A5000000090E290936606000098E030E220E8E3
:102A600087FF03C03093650602C0309366060000FE
:102A70002093650600000000880F20936606000082
:102A8000915071F780E280936506089520912F217F
:102A900080912C21821701F180910F2287FF1CC0A9
:102AA0003091D22180910A2290910B22A0910C2288
:102AB000B0910D22830F911DA11DB11D809328217E
:102AC00090932921A0932A21B0932B2188E893E1A8
:102AD0008093352190933621222341F08091352136
:102AE00090913621892B21F480E803C080E001C059
:102AF00080EC20916A2193E0921B892B8093232202
:102B0000E091D321F091D42181818093242282818C
:102B100080932522209128219091292180912A219A
:102B200020932622909327228093282208956F9243
:102B30007F928F929F92AF92BF92CF92DF92EF924D
:102B4000FF920F931F93CF93DF937090E3218BE05D
:102B5000870D80688093192224E0729EC0011124A1
:102B6000DC01AE5ABF4D7D0109E112E2C7E0D0E0C1
:102B70009BE0692E28E6822E26E0922EA12CB12C15
:102B8000CC24C394D12CD701ED917D01F0E0EE0F60
:102B9000FF1FEA51FE4D20813181C901A0E0B0E064
:102BA0009C01AD012C5C310941095109A0E8BCE050
:102BB0000E94E81EA50194010E94C91EBA01A90144
:102BC0004054564061097109CA0157FF0BC088275C
:102BD0009927841B950B96010C2E01C0220F0A9495
:102BE000EAF7622AF801818392830E5F1F4F2197D3
:102BF000C330D10541F6609222227394F4E07F9EA7
:102C0000C001112408971CF47092E32102C01092B5
:102C1000E321DF91CF911F910F91FF90EF90DF9013
:102C2000CF90BF90AF909F908F907F906F900C94BB
:102C30004615AAE1B2E280E0E82FE370F0E0ED5E35
:102C4000FD4D2C91908192279D938F5F8F30A1F73E
:102C50000895CF93DF93C8ECD2E0FE0131966491E2
:102C6000FE0184910E94B4022296F2E0C63DDF0785
:102C7000A1F7DF91CF910895BF92CF92DF92EF92AB
:102C8000FF920F931F93CF93DF93CDB7DEB760977B
:102C9000CDBFDEBF8091132290E0982F882720912E
:102CA0001422820F911D20912E21253021F02A30EF
:102CB00011F0809590950E94C902E0916921F0E0A1
:102CC000E95CFE4D808190916B219250923040F4EE
:102CD00090E0029765E070E00E945C1F982F03C0AF
:102CE00065E00E943C1FB090CF219E012F5F3F4FB7
:102CF000790138E0939F8001112498012B0D311D3B
:102D000043E0220F331F4A95E1F7D70180E090E0BE
:102D10006701FC01E20FF31FE258FC4FE491ED93D1
:102D2000019688309105A9F748E0B70182E20E9438
:102D3000900287E08B199801280F311D93E0220F34
:102D4000331F9A95E1F780E090E0F901E80FF91F51
:102D5000E258FC4FE491D701ED937D010196883054
:102D6000910599F7DE01199688E08B19080F111D5E
:102D700083E0000F111F8A95E1F780E090E0F801F1
:102D8000E80FF91FE258FC4FE491ED93019688306B
:102D90009105A9F740E1B60183E20E949002E0911B
:102DA0006921F0E0E95CFE4D80810E94EB02809198
:102DB00069218F5F90916B219250923030F467E1DE
:102DC0000E943C1F9093692103C081708093692108
:102DD0006096CDBFDEBFDF91CF911F910F91FF9025
:102DE000EF90DF90CF90BF90089590912F21909316
:102DF0002C2180916B21843009F49CE09093D021A8
:102E00009091D0219450993018F096E09093D02171
:102E10009091D0212CEF290F38EF390F333028F45F
:102E20008D7F813011F421E0290FA5EDB1E28EE014
:102E3000289F9001112480E090E0FC01E20FF31F35
:102E4000EA52FD4FE491ED9301968E309105A9F77A
:102E50000895CF93DF93C8EAD2E0FE0131966491E2
:102E6000FE0184910E94B4022296F2E0C83CDF0782
:102E7000A1F7C0E1C093660684EA0E94251584E0AC
:102E80000E94251583E30E94251583E30E942515E2
:102E9000C093650681E6DF91CF910C94EB02CF934E
:102EA000DF93CDB7DEB72897CDBFDEBFDE01119629
:102EB00020E030E0BD01FC01E20FF31FE491ED934F
:102EC0002F5F3F4F28303105B1F748E082E20E9482
:102ED00090022896CDBFDEBFDF91CF910895FF927B
:102EE0000F931F93CF93DF93F0901322C09114227E
:102EF000D0E000911522CE0146E0959587954A9540
:102F0000E1F71F2D100F180F09F411E081E00E9466
:102F1000EF02812F90E0382F2227820F931F0E940B
:102F2000C902CE0124E0F29E800D911D1124800F74
:102F3000911D99276AE070E00E945C1F33E0880FC2
:102F4000991F3A95E1F784519E4F0E944F1788E0F0
:102F5000DF91CF911F910F91FF900C94D4020F93AA
:102F60001F93CF93DF938091E5218111F1C081E020
:102F70008093E52180912E218C3048F4823008F036
:102F800082C08823C1F0813009F461C0D3C08C3085
:102F900009F0D0C087E88093192230911022317057
:102FA000C2E5D0E2A9E1B2E280E090E020E060E892
:102FB00070E019E19FC080913521909136210097F2
:102FC00029F0019780933521909336218AE88093E8
:102FD0001922909135218091362190931A22809365
:102FE0001B22E091D321F091D421808180931C2277
:102FF000818180931D22828180931E2280911322E1
:1030000080931F2280911422809320228091152288
:103010008093212280911622809322220E944615BD
:1030200090912622809113228927809326229091C5
:103030002722809114228927809327229091282289
:103040008091152289278093282281E071C0809188
:10305000352190913621009729F0019780933521F1
:10306000909336210E9497150E9419168091352160
:1030700090913621892B21F482E080932E211BC070
:1030800010922E2157C00E9497150E941916809108
:103090002E218F5F80932E218091352190913621B2
:1030A000009709F447C0019780933521909336210A
:1030B000892B09F03FC080910F22806880930F22F6
:1030C00039C0332319F1FB01082E02C0F595E795AD
:1030D0000A94E2F72E2B149FF001159FF00D112496
:1030E0004CE94F0F11964C93119701961196883029
:1030F000910581F0E991F0E0EE0FFF1FE85FFE4DD2
:10310000408151814F3FE7E05E07D9F611961C924E
:103110001197EBCF209322220E94461581E09091D7
:10312000E421911180E08093E4210E94191683E04C
:1031300080932E2180916A218F5F843019F08093D3
:103140006A2102C010926A2180E10E94021C2EC0F6
:103150001092E521C5E184E00E94800281FD03C058
:10316000C150C9F723C080912E21823029F485E017
:1031700080932E210E946F1780916A21811116C0C1
:1031800088E00E94D402E091D321F091D42181E221
:10319000E933F80711F0319602C0E7E3F1E2E0937A
:1031A000D321F093D42180810E94EB0280EB94E044
:1031B000DF91CF911F910F9108957F928F929F92EF
:1031C000AF92BF92CF92DF92EF92FF920F931F9335
:1031D000CF93DF93CDB7DEB7C055D109CDBFDEBFEA
:1031E000A82E792EE62EB42EF22E83E0821710F050
:1031F00084E0F82E013508F000E54E2D50E060E047
:1032000070E08A2D972D0E947D1F80E090E00E9443
:10321000C90282E00E94EF0261E070E080E090E08D
:103220000E94C703DE0111964D0110E06D01812F50
:103230000E94EB028EE091E00E94100385E00E9464
:10324000800287FD0FC060E885E00E94B4028FE035
:1032500090E00E94100383E10E9480028FE090E0E2
:103260000E94100383E10E9480028F71F401819318
:103270004F011F5F1035D9F69A2CEA2DF72D10E07B
:103280004B2D50E0AA24AA948E2F89198E1568F52B
:10329000F0828F2D282F082E000C330B90812017E1
:1032A000310774F42C0D3D1DB601690F711DD90154
:1032B0002C91DB019C91291708F480838F5FEACF62
:1032C0003196892F8B19BA01690F711D282F082E8D
:1032D000000C330B26173707BCF6803520F42C0D75
:1032E0003D1DD901AC928F5FF1CF60E289E20E946F
:1032F000B40281E00E94EF0260E289E20E94B4021F
:10330000C05BDF4FCDBFDEBFDF91CF911F910F912B
:10331000FF90EF90DF90CF90BF90AF909F908F90F5
:103320007F900895FF920F931F93CF93DF93F82E12
:10333000092F162F80E18093660681E20E942515F1
:10334000CF2DD02FCE01810F911D8C01C017D10739
:1033500021F00E9411158993F9CF80E180936506D1
:10336000DF91CF911F910F91FF9008952F923F927F
:103370004F925F926F927F928F929F92AF92BF9285
:10338000CF92DF92EF92FF920F931F93CF93DF9331
:1033900020912E21822F90E08E30910508F00FC2EF
:1033A000FC01EB53FF4F0C94701F809135219091DD
:1033B00036219C012150310920933521309336214B
:1033C000892B19F481E080932E2180E10E94021C58
:1033D0009FC040E163E770E283E20E94900282E0D6
:1033E0000E94EF0267E885E00E94B40288E592E05F
:1033F00080933521909336214FC087E00E94800250
:10340000C82F8370823021F487E00E948002C82B8D
:103410008C2F8770823009F047C060E887E00E94F7
:10342000B40289E00E948002C82F8C3108F0CBE101
:103430006C2F8CEE90E20E949219CA3009F045C0C0
:10344000ACEEB0E2E3E1F2E241E080E791E021E0BE
:103450005D91850F911D253020F4308130955313F7
:1034600040E02F5F3196293099F72091F42030E029
:10347000692F77272617370739F02091F52030E09C
:1034800099272817390709F54423F9F080E8809334
:10349000EB2081E08093D12180912E218F5F80935A
:1034A0002E2180ED97E09BC1C1FD0FC060E289E253
:1034B0000E94B40282E00E94EF0260E089E20E9472
:1034C000B40263E885E00E94B402809135219091B6
:1034D000362101978093352190933621892B09F06D
:1034E00071C180912E218F5F80932E216BC18091BD
:1034F0000F22806880930F220E94291681E00E948B
:10350000EF021092692184E080932E210E943C16E4
:1035100080E197E264C188248394293019F02B302C
:1035200009F0812C90912C2180912F2198130E94D9
:10353000F51620916B213EEF320F9091152280916C
:103540001622323028F49093192280931A220BC04D
:10355000909590931922809580931A22211103C08F
:103560007AE0972E02C06BE0962E00910222109115
:103570000322882019F087E090E002C080E090E00C
:103580009C012B523E4D790129E1C22E22E2D22E1E
:10359000312C38E6432E36E0532E612C712C45E158
:1035A000242E59E1A52EB12CF701C1917F01CF3F07
:1035B00009F454C0D0E0FE01EE5BFF4DE081E23043
:1035C000A9F40D35F2E01F0788F40C3C110518F042
:1035D0000C5C110902C000E010E0209EC001219E99
:1035E000900D1124B5010E94481F1FC0F0E0EE0F9E
:1035F000FF1FEA51FE4D20813181C901A0E0B0E0FA
:103600009C01AD012C5C310941095109A0E6B5E0EE
:103610000E94E81EA30192010E94C91EDA01C9019D
:10362000805B9E4FAF4FBF4FBC012AE0921202C099
:1036300076956795882011F0332019F080E090E0AE
:1036400002C080E090E8092C02C0CC0FDD1F0A9474
:10365000E2F7C62BD72BC82BD92B02C0CFEFDFEF59
:10366000F601D283C383339482E0C80ED11CE7E015
:103670003E129ACF84E00E94800280E10E94021CE8
:1036800080912E218F5F80932E218EE997E0A7C035
:103690000E944903C62F0E9449036C1B643628F020
:1036A00080912E21853039F408C082E00E9480028A
:1036B00087FDF1CFF5CF8A30B1F484E00E9480021B
:1036C0008272803209F481C082E00E94800287FD0C
:1036D0007CC00E943C1680912E218F5F80932E210A
:1036E0008CE098E07CC0873019F488E20E94D40214
:1036F00080912E218F5F80932E2182E00E94EF0225
:1037000067E885E00E94B40288E591E168C087E03F
:103710000E948002C82F8370823021F487E00E94CB
:103720008002C82BC770C230C1F460E887E00E94F5
:10373000B40289E00E9480028C3108F08BE1682F8E
:103740008CEE90E20E94921983E10E9480028F71B8
:103750008093EB2081E08093D12160E289E20E9496
:10376000B40280912E218830D9F480916B218D7F15
:10377000A9F48091D021883088F482E00E94EF0281
:1037800060E089E20E94B40267E885E00E94B4022A
:103790008DE080932E2188EF9AE221C089E001C05C
:1037A00084E080932E2181E00E94EF0260E089E2B4
:1037B0000E94B4020E943C1688E592E010C080E0AE
:1037C00090E00DC088E59BE10AC00E941E030E94A4
:1037D00029170E94291681E00E94EF027ACFDF911B
:1037E000CF911F910F91FF90EF90DF90CF90BF90FE
:1037F000AF909F908F907F906F905F904F903F9091
:103800002F900895CF93C82F682F81E00E94B402B3
:1038100063E482E00E94B4024C2F69E172E280E22C
:103820000E94900263E882E0CF910C94B402CF939F
:10383000DF936FEF85E20E94B40280E18093660619
:1038400085E20E942515C3E1D2E20E9411158993F9
:1038500082E2C931D807C9F780E18093650660E04C
:1038600085E2DF91CF910C94B40283EC80935200F7
:10387000809150008860809350008091510083FFB8
:10388000FCCF82EC80935500809150008061809342
:1038900050008091510084FFFCCF88ED84BF1092CE
:1038A000400084BF84E08093400087E08093A200C2
:1038B00078948FEF8093020688E1809310068093BE
:1038C000110680931206809313068093140680934A
:1038D0001506809316068093170697E19093650668
:1038E00092EB909361069DE490936206809370063C
:1038F0008093720681E08093810682E08093820645
:1039000084E880938301109241081092420810923B
:1039100043081092440810924608109247088FEF0F
:103920009FEF80936608909367081092600810924A
:1039300061088BE08093400880E18093650680E217
:103940008093650680E88093660664E670E080E018
:1039500090E00E94C7039091680680910F2292FD2B
:1039600003C08F77806201C0806880930F2210921D
:103970000E22E6EEF1E286E092E220E034E02193CE
:1039800031938E179F07D9F78CEC90E08093EA2152
:103990009093EB2182E080936506809361060E94FC
:1039A0001E0364E670E080E090E00E94C7038DEFA4
:1039B0008093002084E190E00E94961E803FE9F40D
:1039C000CDE0D0E080E090E0DC01CC24D82EE92EE0
:1039D000FA2ECE010E94961EA7019601282BDA012D
:1039E000C9012197C930D10581F7873A31E493079E
:1039F00031EDA3073AE2B307F1F50E943F1E4B01F8
:103A00005C010E943F1E32E0432E55245394652CE6
:103A1000752CA30192010E94C91E7B01DD24CC24D8
:103A2000C501B401A30192010E94C91EC60ED71E92
:103A3000E81EF91E0AE010E0C0E0D0E0C701B601C0
:103A40000C2E04C096958795779567950A94D2F7C2
:103A5000C8010E94A61E28960F5F1F4FC032D105D5
:103A600069F760EF84E190E00E94A61E4C2D3D2D89
:103A70002E2D8F2D04C0482F392F2A2F8B2F4093A6
:103A80000A2230930B2220930C2280930D22109255
:103A9000072210920822109209221092062288E032
:103AA000809345068093410683E18093A608109297
:103AB000A70888E18093A4088091A3088C7C816189
:103AC0008093A3088BE28093A5088091A008809141
:103AD00053068064809353068FEF9FEF10E120918F
:103AE000112230911222232BD1F02091102227FD98
:103AF00016C08139914098F480914C0884FF18C019
:103B0000F894809160089091610880936808909380
:103B10006908789411C08091102287FFEDCF0E9430
:103B2000D6048091112290911222892BA1F7F7CF10
:103B300080914C0884FFFCCFC09110228C2F8860AC
:103B4000809310220E943504C5FF09C0E091112224
:103B5000F0911222309719F00995EC0102C0C0EDE6
:103B6000D7E080911022877F809310220E94FC036F
:103B7000C13A8FE0D807D8F0C05DD740F894809163
:103B80006808909169088056904F809368089093D8
:103B9000690810934C0878940E94D604811105C0DE
:103BA00080914C0884FFFCCFE3CFC0E0D0E0F894D4
:103BB0008091680890916908CC0FDD1FC80FD91F4C
:103BC000C0936808D093690810934C0880916808E6
:103BD000909169082091600830916108821B930BD5
:103BE000789497FDA9CF7BCF8F929F92AF92BF928F
:103BF000CF92DF92EF92FF92CF93DF93EC01688137
:103C000079818A819B81611571058105910521F476
:103C100064E279ED8BE597E02DE133EF41E050E090
:103C20000E94C91E49015A019B01AC01A7EAB1E4F7
:103C30000E94E81E6B017C01ACEEB4EFA50194017B
:103C40000E94F61EDC01CB018C0D9D1DAE1DBF1D1B
:103C5000B7FF03C00197A109B04888839983AA835D
:103C6000BB83BC01CD019F77DF91CF91FF90EF9097
:103C7000DF90CF90BF90AF909F908F9008958F92DC
:103C80009F92AF92BF92CF92DF92EF92FF9260919C
:103C900001207091022080910320909104206115F1
:103CA00071058105910521F464E279ED8BE597E0DA
:103CB0002DE133EF41E050E00E94C91E49015A0155
:103CC0009B01AC01A7EAB1E40E94E81E6B017C01F4
:103CD000ACEEB4EFA50194010E94F61EDC01CB010D
:103CE0008C0D9D1DAE1DBF1DB7FF03C00197A1091F
:103CF000B0488093012090930220A0930320B093BA
:103D00000420BC01CD019F77FF90EF90DF90CF9012
:103D1000BF90AF909F908F90089560930120709313
:103D200002208093032090930420089503D0808183
:103D300099270895E0ECF1E0378537FDFDCF348514
:103D400038603487FC01E050F04F0895262FE0ECF6
:103D5000F1E0378537FDFDCF3485377F34873785F0
:103D600031FF09C036E3328738ED34BF31E03387A5
:103D7000378537FDFDCF33E332878083918312820D
:103D8000248325E3228728ED31E024BF3387019681
:103D90000895052E97FB1EF400940E94E01E57FD27
:103DA00007D00E94FB1E07FC03D04EF40C94E01ECB
:103DB00050954095309521953F4F4F4F5F4F089557
:103DC00090958095709561957F4F8F4F9F4F089587
:103DD0000E941D1FA59F900DB49F900DA49F800D64
:103DE000911D11240895B7FF0C94E81E0E94E81E4F
:103DF000821B930B0895A1E21A2EAA1BBB1BFD0187
:103E00000DC0AA1FBB1FEE1FFF1FA217B307E407B9
:103E1000F50720F0A21BB30BE40BF50B661F771F11
:103E2000881F991F1A9469F76095709580959095F1
:103E30009B01AC01BD01CF010895A29FB001B39FCA
:103E4000C001A39F700D811D1124911DB29F700DA3
:103E5000811D1124911D0895DB018F939F930E9472
:103E6000E81EBF91AF91A29F800D911DA39F900D61
:103E7000B29F900D11240895991B79E004C0991FF9
:103E8000961708F0961B881F7A95C9F780950895B4
:103E9000AA1BBB1B51E107C0AA1FBB1FA617B70770
:103EA00010F0A61BB70B881F991F5A95A9F780958C
:103EB0009095BC01CD01089597FB072E16F4009450
:103EC00007D077FD09D00E94481F07FC05D03EF4BB
:103ED000909581959F4F0895709561957F4F0895B6
:103EE000EE0FFF1F0590F491E02D099469279627A6
:103EF00069277827872778270895DC0101C06D930B
:0C3F000041505040E0F70895F894FFCFC6
:103F0C00FD01000000DFB1C04962DFC14902F99335
:103F1C009702FA5CE3012BF1DB0132BE6F710532C3
:103F2C00051306000102030405060708090A0B0C19
:103F3C000D0E0FC534600025A523D0F000B945B097
:103F4C00F13A020001030405060708090A0B0C0DDF
:103F5C000E0F010002030405060708090A0B0C0DDD
:103F6C000E0FD7A154B15E89AE86C69422FE48E6E8
:103F7C00574E0098881BE430790384C92C0693862D
:043F8C00B99ED70003
:00000001FF
